:03000000020003F8
:0C000300787FE4F6D8FD75811702004AF2
:1001DE000A0848656C6C6F20576F726404127A6B54
:0201EE007A6233
:0501FD0012020280FB6C
:0102050022D6
:10019700E4FDFCEFFBC3ED9B7480F86C985015E40D
:1001A700FBFA0BBB00010AEB64784A70F50DBD0042
:0401B700010C80DFD8
:0101BB002221
:0C01F100D2B5D2B4120205C2B50202055C
:0601BC00ED04FF12016BCF
:1001C200D2B412020530B50FC3E51794FA748094C5
:0C01D200805004051780EEC2B402020544
:10016B00E4FEEEC39408748094805016EF25E0FFF4
:10017B00C2B412020592B5120205D2B41202050ED8
:0C018B0080E0C2B4120205D2B5020205E9
:0200F900AE0750
:1000FB00EE54F0FDEE540FC454F0F9AF0512016B42
:10010B001201C2ED24041201BEAF0512016B1201E4
:10011B00C27F05120197AF0112016B1201C2E924D4
:10012B00041201BEAF0112016B1201C27F05020165
:01013B00972C
:10013C00EF54F0FDEF540FC454F0F91201BCED2450
:10014C00051201BE1201BC7F05120197E91201BD17
:0F015C00E924051201BEE91201BD7F05020197DA
:10008F00E4F5161201F17F4E12016B1201C27F02CD
:10009F001200F97F281200F97F081200F97F0C1265
:1000AF0000F97F061200F97F011200F9E4F516C37B
:1000BF00E516940A74809480500E74082516F8E69D
:1000CF00FF12013C051680E77FC01200F9E4F51618
:1000DF00C3E516940474809480500E74122516F89C
:0900EF00E6FF12013C051680E752
:0100F80022E5
:0302020002008F68
:10000F000201FDE493A3F8E493A34003F68001F209
:10001F0008DFF48029E493A3F85407240CC8C333F2
:10002F00C4540F4420C8834004F456800146F6DFC1
:10003F00E4800B01020408102040809001DEE47E72
:10004F00019360BCA3FF543F30E509541FFEE493B6
:10005F00A360010ECF54C025E060A840B8E493A37D
:10006F00FAE493A3F8E493A3C8C582C8CAC583CAA8
:10007F00F0A3C8C582C8CAC583CADFE9DEE780BE60
:0101F000000E
:00000001FF
