:030000000200CB30
:0C00CB00787FE4F6D8FD75810C0200750A
:0D00BE0048656C6C6F20576F6C72642100F8
:1000750012008DD2997BFF7A0079BE120026309945
:08008500FDC2991200B180EBED
:0C00B1007F2B7E067DCBDDFEDEFCDFFA3F
:0100BD002220
:0800D7008F0C1200DFAF0C22B8
:10008D00D2AFD2ACC29FD29ED29CD28E4389207564
:06009D008DFD758BFD22B4
:0800DF008F993099FDC29922AE
:100050008B088A09890AAB08AA09A90A1200036059
:1000600013050AE50A7002050914F9120003FF12CC
:0500700000DF80E22228
:030023000200A335
:0E00A30030980585990BC298309902C29932A7
:10000300BB010689828A83E0225002E722BBFE02FB
:09001300E32289828A83E493222E
:10002600120003601CFF09E970010AC0E0EAC0E0A3
:10003600EBC0E01200D7D0E0FBD0E0FAD0E0F980C8
:0A004600DF7F0A1200D7E4FEFF225C
:00000001FF
