:020000040800F2
:10000000D00A0020C10F0008E5010008E701000840
:10001000EB010008EF010008F301000800000000F8
:10002000000000000000000000000000F7010008D0
:10003000F901000800000000FB010008FD010008B4
:10004000DB0F0008DB0F0008DB0F0008DB0F0008E8
:10005000DB0F0008DB0F0008DB0F0008DB0F0008D8
:10006000DB0F0008DB0F0008DB0F0008DB0F0008C8
:10007000DB0F0008DB0F0008DB0F0008DB0F0008B8
:10008000DB0F0008DB0F0008DB0F0008DB0F0008A8
:10009000DB0F0008DB0F0008DB0F0008DB0F000898
:1000A000DB0F0008DB0F0008DB0F0008DB0F000888
:1000B000DB0F0008DB0F0008DB0F0008DB0F000878
:1000C000DB0F0008DB0F0008DB0F0008DB0F000868
:1000D000DB0F0008370F0008DB0F0008DB0F0008FC
:1000E000DB0F0008DB0F0008DB0F000800F002F850
:1000F00000F05AF80AA090E8000C82448344AAF168
:100100000107DA4501D100F04FF8AFF2090EBAE865
:100110000F0013F0010F18BFFB1A43F0010318473B
:10012000543C0000743C00000A444FF0000C10F8EE
:10013000013B13F0070408BF10F8014B1D1108BF65
:1001400010F8015B641E05D010F8016B641E01F805
:10015000016BF9D113F0080F1EBF10F8014BAD1C55
:100160000C1B09D16D1E58BF01F801CBFAD505E073
:1001700014F8016B01F8016B6D1EF9D59142D6D3CD
:10018000704700000023002400250026103A28BFF5
:1001900078C1FBD8520728BF30C148BF0B607047F9
:1001A0001FB51FBD10B510BD01F021FD1146FFF7B1
:1001B000F7FF00F009F801F03FFD03B4FFF7F2FF8D
:1001C00003BC00F05DFE000010B500F0D2F900F0B5
:1001D0005AFA0C2302A20021084600F07CFC10BD54
:1001E0006F6B0000704700BFFEE700BFFEE700BF77
:1001F000FEE700BFFEE7704770477047704700009A
:100200000CB50020019000906C48006840F48030EC
:100210006A49086000BF6948006800F40030009037
:100220000198401C0190009818B90198B0F5A06F92
:10023000F1D16248006800F4003010B10120009054
:1002400001E0002000900098012843D15C4800683C
:1002500040F010005A4908600846006820F003008A
:1002600008600846006840F0020008605348406893
:10027000524948600846406848600846406840F473
:10028000806048600846406820F47C10486008465A
:10029000406840F4E81048600846006840F080700C
:1002A000086000BF4548006800F000700028F9D0E1
:1002B0004248406820F003004049486008464068D2
:1002C00040F00200486000BF3C48406800F00C006D
:1002D0000828F9D10CBD10B5FFF792FF10BD10B57D
:1002E0003648006840F0010034490860084640681C
:1002F000344908403149486008460068324908409E
:100300002E4908600846006820F4802008600846EE
:10031000406820F4FE0048604FF41F008860FFF73B
:10032000DAFF4FF000602949086010BD10B50021C8
:1003300000200022214B5B6803F00C0121B104294D
:1003400006D0082928D107E0214B224C236027E062
:100350001F4B204C236023E0184B5B6803F47010A4
:10036000164B5B6803F48032022303EB904022B902
:10037000194B4343174C23600DE0104B5B6803F4AB
:10038000003323B1144B4343124C236003E0104B62
:100390004343104C236003E00D4B0E4C236000BF21
:1003A00000BF064B5B68C3F303130C4CE15C094BC5
:1003B0001B68CB40074C236010BD000000100240BA
:1003C000002002400000FFF8FFFFF6FE08ED00E00D
:1003D00000127A000000002000093D000400002007
:1003E00008B54FF40070ADF8000010208DF8030040
:1003F0006946F74800F0D2FE08BD10B5FFF7F0FFE0
:100400000020F4490860012000F0E9FC0120F249D5
:10041000C1F8BC0100F0E3FC0120EE49086000F0E7
:10042000DEFC0020EC49C1F8BC0110BD08B54FF45A
:100430000070ADF8000004208DF803006946E44820
:1004400000F0ACFE08BD10B5FFF7F0FF0120E34956
:10045000086000F0C4FC0020DF49C1F8BC0110BDF9
:1004600070B50446FFF7BCFF00251BE00020DB4908
:100470000860012000F0B3FC04F0800018B10120F6
:10048000D449086002E00020D2490860012000F051
:10049000A6FC0120D149086000F0A1FC6006040E12
:1004A000681CC5B2082DE1DB0020CC49086070BD96
:1004B00010B5FFF795FF0120C649086000F08FFCDA
:1004C0000120C549C1F8BC0100F089FC0020C149E8
:1004D0000860012000F083FC0020BF49C1F8BC0186
:1004E00010BD10B50446FFF7E3FF7820FFF7B8FF13
:1004F000FFF7A9FF4020FFF7B3FFFFF7A4FF204657
:10050000FFF7AEFFFFF79FFFFFF777FF10BD10B5B6
:100510000446FFF7CDFF7820FFF7A2FFFFF793FF18
:100520000020FFF79DFFFFF78EFF2046FFF798FFA3
:10053000FFF789FFFFF761FF10BD70B5002415E0DC
:1005400004F1B001C8B2FFF7E2FF0020FFF7DFFFC0
:100550001020FFF7DCFF002504E00020FFF7C1FFBB
:10056000681CC5B2802DF8DB601CC4B2082CE7DB28
:1005700070BD08B50121082001F0CCF84FF440709F
:10058000ADF8000010208DF8030003208DF8020064
:1005900069468F4800F002FEAE20FFF7B8FF00204A
:1005A000FFF7B5FF1020FFF7B2FF4020FFF7AFFFC6
:1005B000B020FFF7ACFF8120FFF7A9FFFF20FFF776
:1005C000A6FFA120FFF7A3FFA620FFF7A0FFA8200A
:1005D000FFF79DFF3F20FFF79AFFC820FFF797FF27
:1005E000D320FFF794FF0020FFF791FFD520FFF7FE
:1005F0008EFF8020FFF78BFFD820FFF788FF0520B4
:10060000FFF785FFD920FFF782FFF120FFF77FFF7B
:10061000DA20FFF77CFF1220FFF779FFDB20FFF7DE
:1006200076FF3120FFF773FF8D20FFF770FF142056
:10063000FFF76DFFAF20FFF76AFF642000F0F3FBC8
:10064000FFF77BFF08BD70B505460C467F2D01DC2A
:100650003F2C00DD70BD2046E11704EB5171C1F362
:10066000C70404F1B001C8B2FFF751FF05F0F00173
:10067000102202EB2110FFF74AFF05F00F00FFF7F1
:1006800046FF00BFE6E710B58D20FFF740FF1420BE
:10069000FFF73DFFAF20FFF73AFF10BD10B58D20EB
:1006A000FFF735FF1020FFF732FFAE20FFF72FFFD7
:1006B00010BD2DE9FF5F05460E4691469A46DDF8CE
:1006C00038B0A9EB0500C0B20290AAEB0600C7B291
:1006D0003846F91707EB51714FEAE108029808FB19
:1006E00000F00390BBF1000F01D04FF0FF0B00248E
:1006F00015E094FBF8F008FB1040082101FB0060B6
:10070000C0B2019094FBF8F02844C0B20090019967
:10071000FFF799FF5846FFF7E4FE601C84B2039888
:100720008442E6DBBDE8FF9F2DE9F05F06460F46F9
:1007300015469846A5F12000C5B2B8F10C0F22D19C
:1007400000241DE005EB4500254901EB800010F871
:100750000490A24604EBDA725210A4EB4202082382
:1007600003FB0272D1B2A34604EBDB7206EB62021A
:10077000D0B2FFF768FF4846FFF7B3FE601CC4B273
:100780000C2CDFDB5AE0B8F1100F2DD100241BE058
:10079000144800EB051010F80490A24604EBDA723E
:1007A0005210A4EB4202082303FB0272D1B2A3460B
:1007B00004EBDB7206EB6202D0B2FFF744FF48465F
:1007C000FFF78FFE601CC4B2102CE1DB36E00000A6
:1007D000000C0140A001244200802142BC81214242
:1007E000B4250008282A0008B8F1180F24D10024E5
:1007F0001FE005EBC500F74901EB800010F80490FD
:10080000032094FBF0F100FB1140082101FB007074
:1008100000F0FF0A032094FBF0F0304400F0FF0BDF
:1008200051465846FFF70FFF4846FFF75AFE601C37
:10083000C4B2242CDDDB01E0BDE8F09F00BFFBE784
:1008400010B502460120002302E050435C1CE3B2D5
:100850008B42FADB10BD2DE9FF4F83B08046164670
:10086000109C00270125019606E0681CC5B20A21EC
:100870000198B0FBF1F0019001980928F5D8A9463C
:1008800023E0681EC1B20A20FFF7DAFFB6FBF0F0E2
:10089000C1B20291A34604EBDB71491001FB078151
:1008A000C8B202993031CAB223460499FFF73CFF1F
:1008B000681EC1B20A20FFF7C3FFB6FBF0F100FBD0
:1008C0001166781CC7B2681EC5B2002DD9D10027A9
:1008D0000698A0EB090A15E0A34604EBDB7149106A
:1008E00001FB098104EBD472521002FB0711C8B25C
:1008F0002346202200940499FFF716FF781CC7B204
:10090000AAF1010ABAF1000FE6DC07B0BDE8F08FEA
:100910002DE9F8430646884615461F46089C002DDB
:1009200015DA23462D2241463046FFF7FDFE6D4283
:10093000A14604EBD97106EB6101C8B2791CCBB2B8
:100940002A4641460094FFF786FFBDE8F8833B4600
:100950002A46414630460094FFF77DFF00BFF4E78A
:100960002DE9FF5F86B0814615461E46159C002086
:1009700005904FF0010A2846314601F073FB83468B
:10098000584601F09EFB2A463346CDE9000101F0AE
:100990001BFD07468846CDE902560BE00AF101002F
:1009A00000F0FF0A00228C4BDDE9020101F002FA9F
:1009B000CDE902010022894BDDE9020101F0CEFC04
:1009C000ECD353465A46009448460799FFF7A0FFD8
:1009D00004EBD471491001FB0A91C8B223462E22C0
:1009E00001940799FFF7A0FE204604EBD0714A104E
:1009F0000AF1010102FB019101F0FF092DE0002243
:100A0000754B3846414601F0ABFB074688463846F1
:100A1000414601F027FB8346584601F052FB3A4617
:100A20004346CDE9000101F0CFFC0746884604EBC0
:100A3000D4714B100194059903FB0191C8B20BF1DD
:100A40003001CAB223460799FFF76EFE0598401C95
:100A5000C0B205901498401E149014980028CED16E
:100A60000AB0BDE8F09F2DE9FC47074689461546C8
:100A70001E46DDE90A84002213462846314601F06D
:100A800033FB1CD223462D2249463846FFF74CFE45
:100A90002A4633460020014601F0A2FC05460E46D8
:100AA000A24604EBDA7107EB6101C8B22A4633466D
:100AB0004946CDE90084FFF753FFBDE8FC8708F104
:100AC00001002A4633464946CDE900043846FFF77F
:100AD00047FF00BFF1E72DE9F04106460F461546F6
:100AE0001C461FE004EBD4714910C1F18001B142F2
:100AF00002DA00263819C7B2C4F14000B84204DA5D
:100B0000002006460746FFF718FD2A782346394697
:100B10003046FFF709FE204604EBD07106EB610179
:100B2000CEB26D1C28787E2802DC28782028D9DAFD
:100B3000BDE8F0812DE9F84F80468946164600272A
:100B400043E000253DE0F05D05EB850101EBC501CB
:100B5000234A12F81110884231D1781CC0B20746DE
:100B6000305C05EB850101EBC50102EB41014978E1
:100B7000884224D1002420E005EB850000EBC5006D
:100B8000174901EB4000801C10F804A0A34604EBB9
:100B9000DB725210A4EB4202082303FB0292D1B293
:100BA00004EBD47208EB6202D0B20094FFF74BFD65
:100BB0005046FFF796FC601CC4B2182CDCDB681CA6
:100BC000C5B2192DBFDB781CC7B2F05D0028B8D1C3
:100BD000BDE8F88F183000080000244000002240D3
:100BE000140000202DE9F84F80468946164600275C
:100BF00043E000253DE0F05D05EB850101EBC5011B
:100C0000674A12F81110884231D1781CC0B20746E9
:100C1000305C05EB850101EBC50102EB4101497830
:100C2000884224D1002420E005EB850000EBC500BC
:100C30005B4901EB4000801C10F804A0A34604EBC4
:100C4000DB725210A4EB4202082303FB0292D1B2E2
:100C500004EBD47208EB6202D0B20094FFF7F3FC0D
:100C60005046FFF73EFC601CC4B2182CDCDB681C4D
:100C7000C5B2192DBFDB781CC7B2F05D0028B8D112
:100C8000BDE8F88F2DE9F84F81468A4617464FF0A8
:100C9000000843E000263BE017F8080006EB0611C9
:100CA000404A12F81110884230D108F10100C0B258
:100CB0008046385C06EB061102EB41014978884218
:100CC00024D1002420E006EB0610364901EB400059
:100CD000801C005D00902546E21704EB9272921092
:100CE000A4EB8202082303FB02A2D1B2A346E217BF
:100CF00004EB927209EBA202D0B2FFF7A4FC0098B9
:100D0000FFF7EFFB601CC4B2202CDCDB701CC6B20A
:100D1000192EC1DB08F1010000F0FF0817F80800E8
:100D20000028B7D1BDE8F88F2DE9F84F074688466F
:100D3000914600252FE005EBC50000EB85101A4910
:100D400051F82000484524D100261FE005EBC500DE
:100D500000EB8510144901EB8000001D10F806A07F
:100D6000A34604EBDB725210A4EB4202082303FB00
:100D70000282D1B204EBD47207EB6202D0B20094CB
:100D8000FFF761FC5046FFF7ACFB761CB6F5907F91
:100D9000DCDB681CC5B2192DCDDBBDE8F88F000087
:100DA000E80100201C0200206002002010B56FF056
:100DB000040000F074F92E4800682E49B0FBF1F0F1
:100DC0002D4908700846007800EB4001C1EBC010C7
:100DD0004FF6FF7101EAC0002849088010BD0146A6
:100DE000254A12784A434FF0E0235A6100229A6163
:100DF0001A46126942F001021A6100BF4FF0E02268
:100E0000106900F001021AB100F48032002AF5D016
:100E10004FF0E022126922F001024FF0E0231A6144
:100E200000229A6170470146144A12884A434FF0E3
:100E3000E0235A6100229A611A46126942F00102C7
:100E40001A6100BF4FF0E022106900F001021AB1F0
:100E500000F48032002AF5D04FF0E022126922F02F
:100E600001024FF0E0231A6100229A6170470000EE
:100E70000000002000127A00840300208603002076
:100E8000014600BF704700BF494A128802F0400285
:100E9000002AF9D0C2B2464B1B1D1A80704710B50C
:100EA00086B00446012144F2040000F033FC4FF404
:100EB0000070ADF8140003208DF8160018208DF88E
:100EC000170005A93B4800F069F94FF48060ADF8C0
:100ED000140004208DF8170005A9364800F05EF9CB
:100EE00025208DF8000003208DF801008DF8020008
:100EF00001208DF80300684600F087F80194002077
:100F0000ADF80800ADF80A00ADF80C00ADF810001F
:100F10000C20ADF80E0001A9254800F0A2FC01222A
:100F200040F22551224800F034FD0121204800F014
:100F300024FD06B010BD10B540F225511C4800F04C
:100F40000DFE10B31A4800F089FDC4B21A4800889B
:100F500000F40040C8B91848008800F4804060B12F
:100F60000A2C03D000201449088020E01248008891
:100F700040F400401049088019E00D2C06D10E48BD
:100F8000008840F480400C49088010E00A4800883E
:100F9000C0F30D0009490C5407480088401C06495D
:100FA000088008460088C72801DD0020088010BDA1
:100FB00000380140000801408C030020A4030020F9
:100FC0000948804709480047FEE7FEE7FEE7FEE7DD
:100FD000FEE7FEE7FEE7FEE7FEE7FEE70448054919
:100FE000054A064B70470000DF020008ED000008CC
:100FF000D0040020D00A0020D0060020D006002017
:1010000031490143314A1160704770B50021002316
:101010000F22C47804B32D4C246804F4E064C4F5B2
:10102000E064210AC1F10403CA40447804FA03F1E0
:101030008478144021430901254C0678A155047891
:1010400004F01F050124AC4005786D11AD0005F1D9
:10105000E025C5F8004109E0047804F01F050124EB
:10106000AC401C4D0678761145F8264070BD1A4AF2
:101070000A400243154B1B1F1A60704739B1134ACF
:10108000121D12680243114B1B1D1A6006E00F4A25
:10109000121D126882430D4B1B1D1A6070470428F5
:1010A00008D14FF0E021096941F004014FF0E0223E
:1010B000116107E04FF0E021096921F004014FF0D0
:1010C000E0221161704700000000FA050CED00E01D
:1010D00000E400E080E100E080FFFF1F10B504465F
:1010E000CC48844208D10121042000F02DFB0021CE
:1010F000042000F029FB46E0C748844208D10121C2
:10110000082000F021FB0021082000F01DFB3AE040
:10111000C248844208D10121102000F015FB0021B3
:10112000102000F011FB2EE0BD48844208D10121BF
:10113000202000F009FB0021202000F005FB22E028
:10114000B848844208D10121402000F0FDFA002176
:10115000402000F0F9FA16E0B348844208D101219A
:10116000802000F0F1FA0021802000F0EDFA0AE082
:10117000AE48844207D10121801500F0E5FA002134
:10118000A01500F0E1FA10BD10B50121084600F0ED
:10119000DBFA0021012000F0D7FA10BD2DE9F04163
:1011A000024600250026002000230024002791F895
:1011B00003C00CF00F0591F803C00CF0100CBCF14B
:1011C000000F03D091F802C04CEA050591F800C069
:1011D000BCF1000F31D0146800202BE04FF0010C5F
:1011E0000CFA00F3B1F800C00CEA03069E4220D1CD
:1011F00083004FF00F0C0CFA03F7BC4305FA03FC15
:101200004CEA040491F803C0BCF1280F06D14FF05A
:10121000010C0CFA00FCC2F814C00AE091F803C0FB
:10122000BCF1480F05D14FF0010C0CFA00FCC2F8DC
:1012300010C0401C0828D1D31460B1F800C0BCF124
:10124000FF0F34DD546800202EE000F1080C4FF051
:10125000010808FA0CF3B1F800C00CEA03069E423C
:1012600021D183004FF00F0C0CFA03F7BC4305FAB1
:1012700003FC4CEA040491F803C0BCF1280F05D12B
:1012800000F1080C08FA0CF8C2F8148091F803C0B9
:10129000BCF1480F07D100F1080C4FF0010808FA23
:1012A0000CF8C2F81080401C0828CED35460BDE86A
:1012B000F0814FF6FF710180022181700421C1701D
:1012C00070470246002093680B400BB1012000E0FC
:1012D000002070470146886880B2704702460020AF
:1012E000D3680B400BB1012000E00020704701469D
:1012F000C86880B2704701617047416170470AB1A8
:10130000016100E041617047C16070474FF4803275
:101310000A43826181618261826982697047024603
:101320000020434B18684FF68073184040EA0210C3
:1013300008433F4B186070473E49C8617047F0B59D
:101340000A46002300240021002500F00046B6F1E3
:10135000004F02D1364EF16901E0354E7168C0F39D
:10136000034583B200F44016B6F5401F08D121F0C2
:1013700070612F4E766826F070662D4F7E6012E009
:1013800000F48016B6F5801F06D1032606FA05F490
:10139000A14341F0706106E0460D360103FA06F6FE
:1013A000B14341F0706122B1460D360103FA06F6F1
:1013B000314300F00046B6F1004F02D11C4EF161FE
:1013C00001E01B4E7160F0BD30B500228B071C0F91
:1013D0000F2303FA04F2164B08338C1053F8243011
:1013E0009343134C08348D1044F8253023468C1059
:1013F00053F824308C07240F00FA04F423430C4CD8
:1014000008348D1044F8253030BD0A49DC310860BD
:101410007047000000080140000C0140001001402E
:101420000014014000180140001C01400020014050
:101430000000014000002042DF48006840F0010049
:10144000DD49086008464068DC490840DA494860E0
:1014500008460068DA490840D7490860084600682D
:1014600020F4802008600846406820F4FE004860B0
:101470004FF41F0088607047CF49096821F480311C
:10148000CD4A11601146096821F480211160B0F540
:10149000803F03D0B0F5802F0ED106E0C649096821
:1014A00041F48031C44A116007E0C349096841F43E
:1014B000A021C14A116000E000BF00BF704710B515
:1014C00001460022002300204A11012A02D1BA4C11
:1014D000236806E0022A02D1B74C236A01E0B64C29
:1014E000636A01F01F02012494401C400CB10120EA
:1014F00000E0002010BD38B5002000900024002539
:1015000000BF3120FFF7DBFF05460098401C00902C
:101510000098B0F5A06F01D0002DF2D03120FFF778
:10152000CEFF08B1012400E00024204638BD01466A
:101530000020A14A106820F0F80040EAC1001060C5
:101540007047A04908607047024600209A4B5868CF
:1015500020F47C1042EA01031843974B586070470F
:1015600098490866704701460020934A506820F069
:1015700003000843506070478F48406800F00C003B
:101580007047014600208C4A506820F0F000084364
:101590005060704701460020874A506820F4E060A0
:1015A00008435060704701460020834A506820F489
:1015B000605040EAC1005060704729B17E4A527ABB
:1015C00002437D4B5A7204E07B4A527A82437A4B43
:1015D0005A7270477B49D831086070470146002035
:1015E000754A506820F4404008435060704700211D
:1015F000714A20321170704A82F82010012802D0FE
:1016000004280AD104E001216B4A2032117005E060
:101610000521694A2032117000E000BF00BF704709
:101620006949086070476449096A0143624A116266
:101630007047654944390860704730B50021002281
:10164000002400235C4D6D6805F00C0121B10429D4
:1016500005D0082923D105E05C4D056022E05B4DF3
:1016600005601FE0544D6D6805F47012524D6D68B1
:1016700005F48034022505EB92421CB9544D5543C4
:1016800005600BE04C4D6D6805F400351DB1504D03
:101690005543056002E04D4D5543056002E04B4D5A
:1016A000056000BF00BF444D6D6805F0F0010909F9
:1016B000484D6B5C0568DD4045603F4D6D6805F445
:1016C000E061090A434D6B5C4568DD4085603A4D39
:1016D0006D6805F46051C90A3E4D6B5C4568DD409C
:1016E000C560354D6D6805F44041890B3A4D6B5C22
:1016F000C568B5FBF3F5056130BD29B12E4A5269C5
:1017000002432D4B5A6104E02B4A526982432A4B13
:101710005A61704729B1284A92690243264B9A615F
:1017200004E0254A92698243234B9A61704729B1AC
:10173000214AD2690243204BDA6104E01E4AD26991
:1017400082431D4BDA61704729B11B4AD2680243BC
:10175000194BDA6004E0184AD2688243164BDA600B
:10176000704729B1144A12690243134B1A6104E00D
:10177000114A12698243104B1A617047124940396D
:10178000086070470F49C86470470B49C8717047BB
:101790000948406A40F08070074948627047014636
:1017A0000020054A92680A400AB1012000E00020AA
:1017B0007047014988727047001002400000FFF82E
:1017C000FFFFF6FE000042428004424200127A000F
:1017D00000093D008E0300209E03002010B5044642
:1017E000FB48844209D101218803FFF7ADFF0021A6
:1017F0004FF48040FFF7A8FF32E0F648844209D159
:1018000001214804FFF7ADFF00214FF40030FFF73E
:10181000A8FF25E0F048844209D101218804FFF7A0
:10182000A0FF00214FF48020FFF79BFF18E0EB485A
:10183000844209D10121C804FFF793FF00214FF42E
:101840000020FFF78EFF0BE0E548844208D101211C
:101850000805FFF786FF00214FF48010FFF781FF96
:1018600010BD2DE9F04786B005460E460024A2467D
:1018700000BFA1460027B08900B100BF2F462C8AC7
:101880004CF6FF700440F08804432C82AC894EF67D
:10189000F3100440B0883189084371890843044338
:1018A000AC81AC8A4FF6FF400440B0890443AC825F
:1018B00001A8FFF7C2FEC648874202D1DDF810A09A
:1018C00001E0DDF80CA0A88900F4004040B10AEB6B
:1018D000CA0000EB0A1031684900B0FBF1F807E0DC
:1018E0000AEBCA0000EB0A1031688900B0FBF1F87E
:1018F0006420B8FBF0F004012009642101FB108989
:10190000A88900F4004040B1322000EBC900B0FBD0
:10191000F1F000F00700044308E0322000EB09106A
:101920006421B0FBF1F000F00F0004432C8106B0FD
:10193000BDE8F0874FF41651016000218180C1801D
:1019400001810C21418100218181704710B502463F
:101950000020108A4FF2FF0318400B884C88234365
:101960008C882343CC8823431843108210BD002168
:10197000018041808180C180704721B1828942F419
:101980000052828104E082894DF6FF731A40828101
:101990007047F0B50346002400260025002040F6DD
:1019A0006A17B94200D100BF1846C1F3421401F0D2
:1019B0001F06012707FA06F5012C01D10C3004E0BF
:1019C000022C01D1103000E014301AB107682F4307
:1019D000076002E00768AF430760F0BD1AB1838A71
:1019E0000B43838202E0838A8B4383827047028A9F
:1019F0004FF6F0731A400282028A0A43028270474D
:101A000082894FF2FF731A40828182890A43828160
:101A1000704721B1828942F00202828104E082890A
:101A20004FF6FD731A4082817047028A4FF6DF73CA
:101A30001A400282028A0A430282704721B1028A56
:101A400042F48042028204E0028A4BF6FF731A409D
:101A500002827047C1F3080282807047014688887D
:101A6000C0F308007047818941F00101818170470E
:101A7000028BD2B20283028B42EA012202837047B8
:101A8000028B02F47F420283028B0A430283704777
:101A900021B1828A42F02002828204E0828A4FF6DB
:101AA000DF731A408282704721B1828A42F01002AD
:101AB000828204E0828A4FF6EF731A408282704776
:101AC00021B1828A42F00802828204E0828A4FF6C3
:101AD000F7731A408282704721B1828942F4004232
:101AE000828103E08289C2F30E028281704721B1B4
:101AF000828A42F40062828204E0828A4FF2FF739B
:101B00001A4082827047828A4FF6FB731A408282A3
:101B1000828A0A438282704721B1828A42F002029D
:101B2000828204E0828A4FF6FD731A4082827047F7
:101B300002460020B1F5007F00D100BF13880B40A2
:101B40000BB1012000E00020704701F40072B2F5F3
:101B5000007F00D100BFCA430280704770B50246C3
:101B6000002400230025002040F66A16B14200D16F
:101B700000BFC1F3421501F01F03012606FA03F36B
:101B8000012D02D19689334006E0022D02D1168A3A
:101B9000334001E0968A33400C12012606FA04F421
:101BA0001688344013B10CB1012000E0002070BD54
:101BB00010B50022002340F66A14A14200D100BFF4
:101BC0000A1201249440A3B2DC43048010BD00003B
:101BD000003801400044004000480040004C0040F4
:101BE0000050004070477047704770477047754617
:101BF00000F028F8AE4605006946534620F007007D
:101C0000854618B020B5FFF7E9F9BDE820404FF050
:101C100000064FF000074FF000084FF0000B21F0D6
:101C20000701AC46ACE8C009ACE8C009ACE8C009A3
:101C3000ACE8C0098D4670470446AFF300802046EB
:101C4000FEF7BBFA004870476C04002010B591EA1B
:101C5000030F48BF83F0004300F1CA83841A71EB7D
:101C6000030C05D2121943EB0C03001B61EB0C01B2
:101C7000DFF824E14FEA1154A4EB135C1EEA430F92
:101C800018BF9EEA445F73D023EA0E03DCF1200EF6
:101C900021EA045143F4801332D322FA0CFE10EBF4
:101CA0000E0023FA0CFE41EB0E01CCF1200E03FADC
:101CB0000EFE10EB0E0051F10001B1F5801FCCF1CA
:101CC000200E32D201EB045112FA0EF2BDE81040A0
:101CD00058BF7047401C38BF5FEA420218BF7047C8
:101CE000002814BF20F0010041F100014FEA410338
:101CF00013F5001F38BF7047A1F1C04100F028BBA9
:101D0000012A43EB0302ACF1200CDCF11F0E32BFC1
:101D10004FF0000E23FA0CF310EB030041EB0451DB
:101D2000B4EB115FD0D0A1EB045101F5801149084B
:101D30005FEA300001EB04510ED350F1000038BFD0
:101D400012FA0EFE08D1BDE81040C9E7401C38BFAA
:101D50005FEA4202CAD1C3E7BDE810404FEA41033F
:101D600013F5001F38BF7047A1F1C04100F0F0BA71
:101D70009EEA445F08D011EA5E0FBDE8104004BF40
:101D800001F0004100207047BDE8104070B500F040
:101D900091FA00BF64FBBE3E0000E0FF491058BF4F
:101DA000C1F140415B1058BFC3F140438B42EFF398
:101DB000008070472DE9C04130B4DFF8A0C23CEA92
:101DC000111418BF3CEA131400F0EC8081EA0305FB
:101DD0001CEA111444EAD57418BF1CEA131500F06C
:101DE000C780A4EB05044FF0004545EAC12145EA50
:101DF000C32341EA505143EA525304F17F7499429C
:101E000004F500344FEAC0204FEAC22208BF9042D6
:101E100000F09C804FEA13650FF24016765D4FEAA2
:101E2000134506FB05F7C7F1807706FB07F74FEA76
:101E3000D737A7FB03687642C8F58038A7FB06CEE4
:101E400038BFA8F1010807FB08E64FF0000EA6FB1B
:101E5000028CE6FB03CEDCF1000CCEF1004E38BF65
:101E6000AEF1010EA6FB0C584FF000074FF0000535
:101E7000E6FB0E87A1FB08C6A0FB07CE16EB0E06FD
:101E800045F10005E1FB076515F1E04E7EBFA4F5C5
:101E900080345FEA46066D4116F1800745F1000582
:101EA0004FEA17274FEA066647EA0567A6F1DE46BE
:101EB000B6F1805F4FEA15251FD9384624F0010C92
:101EC00005EBC471BCF1FE6F01EB0C1102D8F0BC44
:101ED000BDE8008124425CBF01F5801E9EEAC47FFC
:101EE00002D4F0BCBDE80081244238D4F0BCA1F19A
:101EF000C041BDE8004100F02BBA4FEAD22242EACD
:101F000043524FEAD323A7FB02864FEAD02040EA90
:101F1000415007FB03661EEA0E0F4FEAD12105FB75
:101F2000026658BFA6EB0056B6EB00564FEA520EBB
:101F30004EEAC37E18EB0E0E56EB530EBDD518EBD2
:101F400002085E417F1C55F10005B6E74FF480158D
:101F50004FF000074FF000064FF00008ADE7F0BC6F
:101F60004FF0000001F1C04101F00041BDE80081E7
:101F700011EA0C1F0CEA131500D00CE013EA0C1F39
:101F800000F025804FF00000F0BC81EA030101F071
:101F90000041BDE80081F0BCBDE8004181EA0301D9
:101FA00000F0D6B9F0BCBDE8004170B500F082F990
:101FB000097EFC3E00F007B881EA03014FF0000003
:101FC00001F00041704781EA030100F0C1B9F0BCA3
:101FD000BDE800414FF0000021497047FFFDFBF9CB
:101FE000F7F5F4F2F0EEEDEBE9E8E6E4E3E1E0DE4C
:101FF000DDDBDAD8D7D5D4D3D1D0CFCDCCCBCAC8BE
:10200000C7C6C5C4C2C1C0BFBEBDBCBBBAB9B8B7E4
:10201000B6B5B4B3B2B1B0AFAEADACABAAA9A8A8D7
:10202000A7A6A5A4A3A3A2A1A09F9F9E9D9C9C9BA5
:102030009A99999897979695959493939291919050
:102040008F8F8E8E8D8C8C8B8B8A898988888787E1
:102050008685858484838382828181800000FF0756
:102060000000F87F4FEA41034FEA5353A3F5806322
:10207000D3F11E03C8BFD3F1210C0CDD4FF0004299
:1020800042EAC12242EA505232FA03FC8CEAE17C75
:10209000ACEBE1707047102BC4BF0020704703F514
:1020A000787CBCF1FF3F04D06FF0004282EA21004F
:1020B000704770B500F0FEF8499224800020704708
:1020C000F2E7B0FA80F310FA03F10AD0C3F11D036E
:1020D00003F580634FEA41504FEA035202EBD121EE
:1020E00070474FF00000704751EA030C17D41CF5FD
:1020F000801F58BFBCF5801F00F10680994218BFB1
:10210000704708BF9042704707D711F5801F58BF2E
:1021100013F5801F19D499427047894270471CF506
:10212000801F08D5BCF5801FF7D58B4218BF7047BC
:1021300008BF824270474FF4001C1CEB410F38BFB0
:102140001CEB430F01D28B42704770B500F0B2F820
:10215000922449004FF000514FF08053FFF71EBE0C
:10216000DFF848C170B51CEA111E1EBF1CEA13152A
:102170009EEA0C0F95EA0C0F00F06F8081EA0304D1
:1021800023EA4C134EEAD47E21EA4C1141F480112B
:1021900043F48013AE44A1FB024CA0FB0365AEF1F7
:1021A0007F7E361955EB0C05A1FB034C4CF1000367
:1021B000A0FB021C16EB0C06654153F1000309421B
:1021C00018BF46F0010613F4007F0BD14FEA03312C
:1021D0004FEA0530340341EA155140EA16506FF0DA
:1021E00003020AE04FEAC3214FEAC520F40241EAA4
:1021F000555140EA56506FF0020202EB2E4201EBBD
:10220000025585EACE710AD05FEA440C18BF24F06B
:10221000004450F1000041F1000120EAD47040F286
:10222000FE7C624500D270BDA84214BF4FF08044CE
:102230004FF04044002E08BF0024BEF1806FA8BFBD
:10224000A1F1C041BDE8704080F282804FF00000F3
:1022500001F1C04101F0004170479EEA0C0F0CEA09
:10226000131518BF95EA0C0F06D04FF0000081EA55
:10227000030E0EF0004170BD00F01CF88900013E15
:1022800000F007B800F009B84FEA430C5FEA5C5C65
:1022900008D081EA030100F05BB84FEA410C5FEA25
:1022A0005C5CF6D14FF00000014970470000FF0769
:1022B0000000F87F0EF1020E2EF0030E5EF8046BA4
:1022C000364205D4012A43EB030515F5001F12D849
:1022D000012841EB010C1CF5001F0CD80ED14FEA70
:1022E000D17C15F5001F0CEB4C0C0CF1020C08BF57
:1022F0004CEBD37C04E04FF0080C01E04FEAD37CB8
:102300000CEB4C0526FA05F606F00706B6F1040CB0
:1023100006D20EEB860CBDE870404CF0010C604715
:10232000DFE80CF0090B02024FF000414FF0000013
:10233000A1F5002170BD19461046012851EB01049A
:1023400018BFD4F5001484BF002001F0004170BD17
:102350000808A0F500114FEA3101704753EA010C5B
:1023600017D41CF5801F58BFBCF5801F00F10680F4
:102370008B4218BF704708BF8242704707D713F5DA
:10238000801F58BF11F5801F19D48B4270479B42A4
:1023900070471CF5801F08D5BCF5801FF7D5994202
:1023A00018BF704708BF904270474FF4001C1CEBE9
:1023B000430F38BF1CEB410F01D2994270470FB455
:1023C0000CBC03BCFFF7C1BE91EA030F10B581F04E
:1023D00000413FF543AC83F0004300F009B8000032
:1023E00010B591EA030F48BF83F000433FF536ACC8
:1023F000841A71EB030C07D212198CF0004C43EBDA
:102400000C03001B61EB0C01DFF8A4E14FEA11544F
:10241000A4EB135C1EEA430F18BF9EEA445F00F072
:10242000B08023EA6E03524221EA0451C3EB6E03EB
:1024300038BF5B1EDCF1200E25D322FA0CFE10EB18
:102440000E0043FA0CFE41EB0E01CCF1200E03FA14
:102450000EFE10EB0E0051F10001CCF1200E29D43C
:1024600012FA0EF201EB0451BDE8104058BF70475C
:10247000401C1CBFB2F1004F704700280CBF491C24
:1024800020F00100704712EB020E43EB030218BF6D
:102490004FF0010E4EEA4202ACF1200CDCF11E0EB0
:1024A00054D943FA0CFE10EB0E0051F1FF31CCF180
:1024B0001E0ED5D50EF1010E12FA0EFE404141EB73
:1024C000010101EB445C5FEA5C5C10D910EBDE704B
:1024D00001EB045138BFBEF1004FBDE8104018BFFA
:1024E000704700280CBF491C20F00100704730D213
:1024F0004FEAD42C11F5001124F400641BD0B1FA7A
:1025000081F20B3AA41AA41ED2F12003914030FAB2
:1025100003F31943904001EBCC71002C01EB045103
:10252000BDE81040A8BF704701F1C0414FF0000066
:1025300001F000417047B0FA80F310FA03F100D1C6
:1025400010BDE41A173C4805C90AE4E701EB045141
:1025500010BD491001EB0451BDE810404FEA3000B6
:1025600002E04FF0000170474A0008BF0042F8D077
:10257000B2F5001F28BF704701F000414FF0000086
:1025800070479EEA445F07D011EA5E0FBDE8104035
:1025900004BF002100207047BDE8104070B5FFF770
:1025A00089FE00BF40DFF63E83F0004110467047D1
:1025B0000000E0FF0000000000000000000000003C
:1025C000000000007C020000000000000000040089
:1025D00003000400030000009000FC039000FC03D3
:1025E0009000000018012402FE0744028801000048
:1025F00038004403F800D0012C02C001C0013802A9
:10260000E4021801E00220010400030000000000C1
:102610000000000000000000F800060301040000B4
:10262000000001040603F8000000000090006000B4
:10263000F801600090000000000020002000F80079
:102640002000200000040003000000000000000043
:1026500020002000200020002000200000000002B8
:10266000000000000000000000040003C000300073
:102670000C000200F801040204020402F801000048
:1026800000000802FC03000200000000180384029E
:102690004402240218020000080104022402240259
:1026A000D8010000C000A0009802FC0380020000D6
:1026B0007C01240224022402C4010000F00148022B
:1026C00024022402C801000000000400C4033400F6
:1026D0000C000000D801240224022402D8010000CA
:1026E0003801440244022401F80000000000000008
:1026F00010020000000000000000000020060000A2
:1027000000000000000060009000080104020000CA
:1027100050005000500050005000500000000402D3
:10272000080190006000000018000400C4022400AA
:1027300018000000F0000801E402F40284027801AD
:102740000002E0039C00F000800300020402FC038E
:1027500024022402D8010000F80104020402040249
:102760000C0100000402FC0304020402F801000052
:102770000402FC03240274020C0300000402FC03A4
:10278000240274000C000000F0000801040244025E
:10279000CC0140000402FC0320002000FC030402E2
:1027A00004020402FC03040204020000000C0408FA
:1027B0000408FC07040004000402FC032402500087
:1027C0008C0304020402FC03040200020002000362
:1027D000FC033C00C0033C00FC0304020402FC03B5
:1027E0003002C400FC030400F801040204020402E5
:1027F000F80100000402FC03240224001800000079
:10280000F801840284020407F80500000402FC03B6
:1028100024026400980300021803240224024402E4
:102820008C0100000C000402FC0304020C000000F8
:102830000400FC0100020002FC01040004007C0012
:102840008003E0001C0004003C00C0037C00C003C7
:102850003C00000004029C0360009C030402000092
:1028600004003C02C0033C02040000000C0284038C
:1028700064021C020403000000000000FF070104C2
:1028800001040000000006003800C001000600003E
:10289000000001040104FF07000000000000020026
:1028A0000100020000000000000800080008000805
:1028B0000008000800000100020000000000000005
:1028C00000004001A002A002C00300020200FE03BB
:1028D00020022002C00100000000C00120022002EE
:1028E000600100000000C00120022202FE0300027D
:1028F0000000C001A002A002C002000000002002EF
:10290000FC0322022202040000004005A00AA00AE3
:10291000600A20040202FE0320022000C00300021D
:1029200000002002E603000200000000000800088A
:102930002008E607000000000202FE03800060019C
:102940002002000002020202FE0300020002000058
:10295000E0032000E0032000C00300002002E003A9
:1029600020022000C00300020000C001200220025B
:10297000C00100002008E00F200A2002C001000072
:102980000000C0012002200AE00F00082002E0033E
:10299000400220002000000000006002A002A0020F
:1029A0002003000000002000F803200220020000A5
:1029B0002000E00100022002E00300022000E0000D
:1029C0000003E0002000000060008003E0008003BE
:1029D000600000002002600380006003200200000D
:1029E0002008E00800050003E000200000002002AD
:1029F000A003600220020000000000002000FF078A
:102A000001040000000000000000FF0F00000000B3
:102A100000000104DF0720000000000002000100A8
:102A200001000200010000000000000000000000A2
:102A30000000000000000000000000000000F8336B
:102A40000000000000000000000010000C00020068
:102A500010000C000200000000004004C03F780499
:102A60004004C03F780400000000701888208820CF
:102A7000FCFF0821301E0000F0000831F00C80033C
:102A8000601E1821001E0000001EF0210823882C63
:102A90007019002700210010000012000E00000035
:102AA0000000000000000000000000000000E0073F
:102AB00018180420024000000000024004201818EA
:102AC000E007000000000000400240028001F00F1B
:102AD00080014002400200000000000100010001EE
:102AE000E00F0001000100010000009000700000F4
:102AF00000000000000000000000000100010001D3
:102B00000001000100010000000000300030000062
:102B10000000000000000000000000600018000736
:102B2000C0003800040000000000E00F1010082072
:102B300008201010E00F00000000000010201020FE
:102B4000F83F002000200000000070300828082412
:102B500008220821F0300000000030180820082169
:102B600008218822701C0000000000068005402417
:102B70003024F83F002400240000F8198820882021
:102B800088200811080E00000000E00F10118820B6
:102B900088209020001F0000000018000800083E58
:102BA00088016800180000000000701C88220821BD
:102BB00008218822701C00000000F0010812082281
:102BC00008221011E00F0000000000000000C030DB
:102BD000C03000000000000000000000000080E0A5
:102BE000000000000000000000000001800240041E
:102BF000200810100820000000004002400240029F
:102C0000400240024002000000000820101020088E
:102C100040048002000100000000700048000830FD
:102C20000837880070000000C0073018C82728281F
:102C3000E82F1028E01700000020003CC0233802D5
:102C4000E0020027003800200820F83F8820882074
:102C500088207011000E0000C007301808200820DE
:102C600008200810380800000820F83F0820082035
:102C700008201010E00F00000820F83F882088206E
:102C8000E8230820101800000820F83F882088005A
:102C9000E803080010000000C007301808200820D2
:102CA0000822381E000200000820F83F0821000119
:102CB00000010821F83F0820000008200820F83F04
:102CC000082008200000000000C000800880088064
:102CD000F87F0800080000000820F83F8820C001A5
:102CE00028261838082000000820F83F0820002077
:102CF00000200020003000000820F83FF801003ECE
:102D0000F801F83F082000000820F83F3020C000FC
:102D100000070818F83F0800E00F101008200820EE
:102D200008201010E00F00000820F83F08210801DB
:102D300008010801F0000000E00F10100828082822
:102D400008301050E04F00000820F83F882088002D
:102D50008803880C7030002000007038882008211B
:102D600008210822381C0000180008000820F83F3D
:102D700008200800180000000800F81F08200020A4
:102D800000200820F81F0800080078008807003895
:102D9000000EC801380008000800F803003EF801E2
:102DA000003EF8030800000008201830682C80035B
:102DB0008003682C1830082008003800C820003F25
:102DC000C820380008000000102008380826082114
:102DD000C820382008180000000000000000FE7F16
:102DE0000240024002400000000004003800C00120
:102DF0000006003800C0000000000240024002400F
:102E0000FE7F00000000000000000000040002003F
:102E100002000400000000000080008000800080AC
:102E2000008000800080008000000200020004009A
:102E30000000000000000000000000198024802431
:102E40008012003F002000001000F03F00118020A1
:102E500080200011000E00000000000E00118020F4
:102E600080208020001100000000001F80208020B2
:102E700080209010F03F00200000001F802480245C
:102E80008024802400170000000080208020E03F84
:102E900090209020200000000000006B809480941F
:102EA00080948093806000001020F03F002180001B
:102EB00080008020003F0020000080209820983F64
:102EC0000020002000000000000000C00080808082
:102ED0009880987F000000001020F03F002400063A
:102EE0008029803080200000000010201020F83F52
:102EF00000200020000000008020803F8020800013
:102F0000803F80208000003F8020803F00218000A3
:102F100080008020003F00200000001F80208020D3
:102F200080208020001F0000808080FF0091802092
:102F300080200011000E00000000000E0011802013
:102F40008020009180FF008080208020803F002131
:102F50008020800080010000000000338024802455
:102F60008024802480190000000080008000E01F81
:102F700080208020001000008000801F00200020A2
:102F800000208010803F002080008003800C0030F3
:102F9000800C8003800000008001800E0030800CD7
:102FA0008007003880068001000080208031800E7C
:102FB000002E803180200000800080818086007893
:102FC0000018800680018000000080218030802C65
:102FD00080228021803000000000000000000000FE
:102FE0000001FC3E02400240000000000000000022
:102FF000FFFF00000000000002400240FC3E000114
:1030000000000000000000000000020001000200BB
:1030100002000400020000000000000000000000A8
:1030200000000000000000000000000000000000A0
:103030000000000000000000000000000000000090
:103040000000000000000000000000F0771CF00FFE
:103050001C00000000000000000000000000000054
:103060000000000000008000006000003000001C34
:1030700000008C00006000003000001C00000C000C
:103080000000000000000000830100831F00FF011A
:10309000F0830100830100830100830100FB1FF026
:1030A0008701008301000000000000000000800391
:1030B00007C0070F600C12201810F8FF7F20711056
:1030C000E0E10FC08107000000000000C0070030F1
:1030D0001800101018301807C0CF0000380000C6C4
:1030E00007C0311830101000301800C00700000071
:1030F00000C00700E00FE01718F03F1010F810F0C4
:10310000C713E0030F00080E00F8190008100008AC
:103110001000000C0000000000008C00004C0000BB
:103120003800000000000000000000000000000067
:10313000000000000000000000000000000000008F
:103140000000000000000000FE0080010360000C91
:1031500010001008002004004000000000000004DF
:10316000004008002010001060000C80010300FEE9
:10317000000000000000000000000000000000004F
:103180000000000066000066000024000038000017
:103190001000C0FF03801800003C000024000066FF
:1031A0000000660000000000100000100000100089
:1031B00000100000100080FF03001000001000004D
:1031C00010000010000010000000000000000000CF
:1031D0008C00004C000038000000000000000000DF
:1031E00000000000000000000000000000000000DF
:1031F000100000100000100000100000100000106F
:10320000000010000010000010000010000000007E
:1032100000000000000000001C00001C00001C005A
:10322000000000000000000000000000000000009E
:103230000000000000000000006000003800000EE8
:10324000008001007000001C00000300E000003856
:1032500000000C000000000000000000FE0180FFE4
:1032600007C0010E60001820001020001060001838
:10327000C0010E80FF0700FE0100000000000000FA
:103280000000400010400010400010C0FF1FE0FF91
:103290001F000010000010000010000000000000DF
:1032A00000000080031840031C20001220001120A1
:1032B000C010206010603010C01F1080071E00007A
:1032C00000000000000000C0010EC0010E20001030
:1032D000201010201010601810C02F1880E70F0069
:1032E000800700000000000000000000C00000A0F7
:1032F00000009800008400008310808010E0FF1F11
:10330000E0FF1F008010008010008000000000001F
:103310000007E03F0B2010102008102008102008A4
:103320001020181C20F00F20E00300000000000017
:1033300000000000FC0180FF07C0210C4010182095
:103340000810200810200810E01808C0F00F00E056
:1033500003000000000000000000C0010060000049
:1033600020000020001F20E01F201800200700E0A0
:103370000000600000000000000000808307C0CF54
:103380000F606C0820181020101020301020301012
:10339000606818C0CF0F80830700000000000000A5
:1033A0001F00C03F0CC0601C204010204010204077
:1033B00010202008C0100F80FF0300FE0000000056
:1033C00000000000000000000000000000000000FD
:1033D0001C1C001C1C001C1C000000000000000045
:1033E00000000000000000000000000000000000DD
:1033F000000000000CD8000C3800000000000000A5
:1034000000000000000000000000000000000010AC
:10341000000028000044000082000001018000023A
:103420004000042000081000100000000000000010
:1034300044000044000044000044000044000044F4
:10344000000044000044000044000044000000006C
:103450000000000000001000102000084000048060
:10346000000200010100820000440000280000105A
:10347000000000000000000000008007004006007F
:1034800040000020001C20E01C20101C20180060C0
:103490000800C00F0080070000000000FE00C0FF11
:1034A00007E0000E20F81810FF1190031190FC1196
:1034B000A0070960800C807F02000000000010005F
:1034C000001C008013007810804700604000E0413D
:1034D00000005F0000F01100801F000018000010C5
:1034E000000000200010E0FF1FE0FF1F2010102050
:1034F0001010201010601810C02F18C0E70F0080A7
:103500000700000000000000FC0180FF07C0010E62
:10351000400018200010200010200010600008E07B
:10352000000C800303000000200010200010E0FFCA
:103530001FE0FF1F20001020001020001040000896
:10354000C0010E80FF0700FE01000000200010E017
:10355000FF1FE0FF1F20101020101020101020105F
:103560001020FC10600010600018800106000000B0
:10357000200010E0FF1FE0FF1F201010201010207F
:10358000100020100020FC0060000060000080019E
:103590000000000000000000FC0180FF07C0010ED9
:1035A00060001820001020401020401040C00F8004
:1035B000C30F004000004000200010E0FF1FE0FFAC
:1035C0001F2010100010000010000010000010005C
:1035D000201010E0FF1FE0FF1F200010000000007F
:1035E0000000200010200010200010E0FF1FE0FF6E
:1035F0001F2000102000102000100000000000001C
:103600000000000000600000E0200080200080201A
:1036100000C0E0FF7FE0FF3F20000020000020000E
:1036200000000000200010E0FF1FE0FF1F2030100E
:10363000000C00003A00A0E100E0801360001E20B2
:103640000018000010000000200010E0FF1FE0FF45
:103650001F200010200010000010000010000010BB
:10366000000010000018000006000000200010E01C
:10367000FF1FE00F1000FF0000E00F008007007C3C
:1036800000C00310E0FF1FE0FF1F2000100000003B
:10369000000010200010E0FF1FE001108007100064
:1036A0001E0000780020C00320000FE0FF1F200054
:1036B0000020000000000000FE0180FF07C0010E96
:1036C000600018200010200010600018C0000C805E
:1036D000FF0700FE01000000200010E0FF1FE0FFD8
:1036E0001F2020102020102020002020002030004B
:1036F000401000C01F00800F00000000000000000C
:10370000FE0180FF07C0010E60001920001120009B
:103710001760003CC0006C80FF6700FE21000000C5
:10372000200010E0FF1FE0FF1F20101020100020DD
:10373000100020700020D001600807C00F1E800715
:1037400018000010000000800707C00F0C601C0864
:1037500020181020381020301020701040E018E0A1
:10376000E10F0080070000008001006000002000E1
:1037700000200010200010E0FF1FE0FF1F200010BD
:1037800020001020000060000080010000000020E8
:103790000000E0FF07E0FF0F20001800001000000D
:1037A00010000010200008E0FF07200000000000CB
:1037B000200000600000E00700207E0000E007001D
:1037C000001E008003007800A007006000002000B9
:1037D00000000000200000E0030020FF0000C01FE8
:1037E00020C003603C00E03F0020F01F0080072065
:1037F0007C00E003002000000000002000106000BA
:1038000018E00116208701007C0000E800208613E4
:10381000E0011E20001820001000000020000060C1
:103820000000E00100200F10003C1000F81F00E035
:103830001F001810200610A00100600000200000EA
:10384000000000800110E0001C60001720801120A3
:103850006010201810200610A00310E000182000AF
:103860000600000000000000000000000000000052
:10387000000000FCFF7F04004004004004004004FE
:1038800000400000000000000000000000003000C8
:1038900000C0000000070000180000E000008003E6
:1038A00000000C000070000080000000000000001C
:1038B0000000040040040040040040040040FCFFFD
:1038C0007F00000000000000000000000000000079
:1038D00000000000000000000008000004000002DA
:1038E00000000200000400000800000000000000CA
:1038F00000000000000080000080000080000080C8
:103900000000800000800000800000800000800037
:103910000080000080000080000000000000000027
:10392000000400000400000800000800000000007F
:103930000000000000000000000000000000000087
:10394000000F00981F0098190084100044100044D4
:103950001000440800FC0F00F81F000010000018C1
:10396000000000200000E0FF1FF0FF0F001808001B
:103970000810000410000410000C1800F80F00F0EC
:103980000300000000000000E00300F80F00180C26
:10399000000410000410000410003C10003808005F
:1039A000000600000000000000000000E00300F836
:1039B0000F001C1800041000041020041020080838
:1039C000E0FF1FF0FF0F00000800000000000000F3
:1039D000000000E00300F80F00880C008410008451
:1039E00010008410008C1000F80800E004000000B3
:1039F00000000000040000041000041080FF1FC03D
:103A0000FF1F600410200410200410E00000C0001C
:103A10000000000000000000007000707E00F8CF81
:103A2000008C85000485000C8D00FCCD00F478002E
:103A30000C78000C00000000000000200010E0FFE7
:103A40001FF0FF1F00081000040000040000041015
:103A500000FC1F00F81F0000100000000000000024
:103A6000000000041000041000041060FC1F60FE41
:103A70001F000010000010000010000000000000F7
:103A80000000000000000000C00000C00004800032
:103A900004806004C060FC7F60FE3F000000000006
:103AA00000000000000000200010E0FF1FF0FF1FDA
:103AB00000801000400000E000001C1300041E0005
:103AC00004180000100000000000000000002000AA
:103AD00010200010200010E0FF1FF0FF1F0000105A
:103AE00000001000001000000000000000041000A2
:103AF000FC1F00FC1F00081000041000FC1F00F851
:103B00001F00081000041000FC1F00FC1F00001024
:103B100000000000041000FC1F00FC1F0008100043
:103B2000040000040000041000FC1F00F81F000047
:103B30001000000000000000E00300F00F00180C6F
:103B4000000C10000410000410000C1000180C00F1
:103B5000F00F00E00300000000000000048000FC03
:103B6000FF00FCFF0008880004900004100004100F
:103B7000000C1C00F80F00F0030000000000000023
:103B8000E00300F80F001C180004100004100004EB
:103B90009000088800F8FF00FCFF00008000000093
:103BA00000041000041000041000FC1F00FC1F00A3
:103BB0001010000810000410000400001C00001881
:103BC0000000000000000000000000381E0078180F
:103BD00000CC1000C410008411008419000C1F00D8
:103BE0003C0F000000000000000000000400000482
:103BF0000000040000FF0FC0FF1F000410000410AD
:103C000000041000000C0000000000000000000094
:103C1000040000FC0F00FE1F000018000010000050
:103C20001000040800FC1F00FE0F00000800000048
:103C3000000000000400000C00007C0000C4030031
:103C4000001F00000C008003007400000C00000442
:103C500000000000000400001C0000F40100801FB0
:103C600000040F00EC0000FC0000840F00000F00B7
:103C7000E400001C0000040000000000001000042C
:103C800010000C1C003C1200E40100C001002413D1
:103C9000001C1C00041800041000000000000000BC
:103CA00004000004C0003C8000C48100007F0000CC
:103CB0000E00C401003C00000400000400000000ED
:103CC000000000000000003C1800041E0004130067
:103CD000C411007410001C10000C1800000E00002D
:103CE00000000000000000000000000000000000D4
:103CF000000000001000002800F8C73F0400400446
:103D00000040000000000000000000000000000073
:103D100000000000000000000000FFFFFF000000A6
:103D20000000000000000000000000000000000093
:103D30000000040040040040F8C73F0028000010C5
:103D40000000000000000000000000000000000073
:103D50000000000C0000020000020000020000044D
:103D600000000800001800001000001000000C0007
:103D700000000000943D000800000020A4030000A3
:103D800028010008683F0008A40300202C07000059
:103D9000840100081184A24A04100C0102030406E5
:103DA000070809C4E320121014FC0F03100A1002C4
:103DB000CF010408F40F041254238C03100EBAC36D
:103DC000880878050F028805780842164208F20F25
:103DD0004A124602FF4001A423C4E3128014F07F7C
:103DE0000E100A401830071E41F07F102550023097
:103DF0000C33BAC3100846FC29101CE013100A014A
:103E0000044104C1F43F08013A01341301801260F7
:103E100014F8FF07100E4010200C18030F40088004
:103E2000C87F082F0801280618183C280D104010DC
:103E300022F0151F081016F061621008824082807F
:103E4000E27F92128A1A860E21194711100CAAAA33
:103E5000AA0A55555501AAAA2A10095515800F8A94
:103E600002FC06181DC0AB0AF8FF550FAFFFAA0EE3
:103E7000D555D50FAAAAFF0F55FFFF0FEAFFEF0F89
:103E8000FD081812FFFAFF0F57FDFD0FABBFFF0F24
:103E9000F5F5FF0FFA101816770DFF0FFB0FFC0F4B
:103EA000F705F00FFB02E00FF7014004FB661A7FF5
:103EB00067222723024513040C140804042308086E
:103EC0001A1804322932383A39041A04141A281CF0
:103ED0001A74241AF62C1A763422FA130FF114806D
:103EE0000FFB14C00F7114E00FBB14F00F7F14F818
:103EF0000FFA1808FE0FD587FF0FAA8C18135DFD67
:103F0000FF0FE8ABAF0A55FF5705AAFAFF0B55D5CF
:103F1000A029A42904483BF3EF0FFFF9EF0CFFFFA2
:103F2000270E83FEF70F8BFE230FABFE690FABFD51
:103F3000640F837CA20E2BFA050CABF3CD0DABF016
:103F40007B0983E6330983E7E709FFE7E70DFFE332
:103F5000E73CE4FBFF0F2D010203040418080607E9
:083F60000809020406C6000076
:04000005080000ED02
:00000001FF
