:020000040800F2
:10000000180E002011260008490C00084B0C0008AF
:100010004D0C00084F0C0008510C000800000000B7
:10002000000000000000000000000000530C000869
:10003000550C000800000000570C0008590C00087F
:100040002B2600082B2600082B2600082B2600084C
:100050002B2600082B2600082B2600082B2600083C
:100060002B2600082B2600082B2600082B2600082C
:100070002B2600082B2600082B2600082B2600081C
:100080002B2600082B2600082B2600082B2600080C
:100090002B2600082B2600082B260008390900080B
:1000A0002B2600082B2600082B2600082B260008EC
:1000B0002B26000821180008612200082B260008C2
:1000C0002B2600082B2600082B2600082B260008CC
:1000D0002B260008A92500082B260008F522000879
:1000E000F90800082B2600082B26000800F002F86B
:1000F00000F0B0F80AA090E8000C82448344AAF112
:100100000107DA4501D100F0A5F8AFF2090EBAE80F
:100110000F0013F0010F18BFFB1A43F0010318473B
:10012000E4750000047600000A444FF0000C10F85B
:10013000013B13F0070408BF10F8014B1D1108BF65
:1001400010F8015B641E05D010F8016B641E01F805
:10015000016BF9D113F0080F1EBF10F8014BAD1C55
:100160000C1B09D16D1E58BF01F801CBFAD505E073
:1001700014F8016B01F8016B6D1EF9D59142D6D3CD
:10018000704700000023002400250026103A28BFF5
:1001900078C1FBD8520728BF30C148BF0B607047F9
:1001A0006E2903F01A87702903F08185662905F00E
:1001B0004586652905F04286672905F03F86612955
:1001C00005F03E8603681B0A28BF41F080016929BB
:1001D00003F0F284642903F0EF84752903F0EC84C2
:1001E0006F2904F01280782903F04D85E92903F086
:1001F000AD87E42903F0AA87F52903F0A787EF2943
:1002000004F00F80F82903F04C850368DB0928BF50
:1002100041F08001632903F01C87732903F02187D3
:10022000E32904F0E583F32904F0EA830020704712
:100230001FB504F03BFC04000020002105F034F958
:10024000401C60600020002105F018F9E0601FBD2F
:1002500010B510BD04F0FCFB1146FFF7E9FF00F0FC
:1002600015FB04F0D9FC03B4FFF7F2FF03BC02F066
:1002700045F9000070B51023FEA20021142001F002
:10028000BDFE1023FEA21421002001F0B7FE1023B2
:10029000FEA22821002001F0B1FE322002F010F968
:1002A000FD4C4FF01003A08988B1FCA2142150200E
:1002B00001F0A4FE1023FAA22821502001F09EFE96
:1002C0006089002601280AD002280DD010E0F4A28F
:1002D0001421502001F092FE1023F0A2ECE701213E
:1002E000608A00F0C2FE01E000F0EEFE0546A68046
:1002F0004DB140F2DC5002F0E3F8BDE87040E64852
:10030000143001F08BB901F02EFC1023D9A200218A
:10031000142001F073FE1023E2A228210A2001F02C
:100320006DFE4FF4FA7002F0CBF8608A401C6082D8
:10033000012020806680A680E68070BD2DE9F84F00
:1003400000273D460126DB4C4FF47A7A4FF00C082B
:10035000DFF844934FF4487B01F005FC0C23D6A250
:1003600000210A2001F04AFE00F0A8FD4FF00C0326
:1003700008B1D6A22AE0D8A21421002001F03EFE46
:10038000012000F0B5FD4FF00C0308B1D5A22BE021
:10039000D7A22121002001F031FEC4F88051642051
:1003A00002F08EF8C4F880610127584602F088F800
:1003B00001F0D9FB0C23D1A200210A2001F01EFE7E
:1003C00000F07CFD4FF00C0310B1D0A214210CE022
:1003D000D1A214210A2001F011FE022000F088FDB4
:1003E0004FF00C0328B1CFA22121002001F006FE1E
:1003F000C6E0D0A214210A2001F000FEC4F880510A
:10040000642002F05DF8C4F88061584602F058F8A4
:1004100001F0A9FB0C23CAA20021142001F0EEFD7B
:1004200000F084FD4FF00C03B0B1C9A214210020EC
:1004300001F0E4FD0C23CAA22821002001F0DEFD1A
:10044000C4F88051642002F03BF8C4F880610027B2
:10045000504602F035F893E0C5A21421002001F0C7
:10046000CDFDC4F88051642002F02AF8C4F8806100
:100470000327EDE701F077FB0C23C1A200210A203E
:1004800001F0BCFD00F0AEFD38B100270C23C1A285
:100490001421384601F0B2FDDAE70C23C1A2142181
:1004A000002001F0ABFDC4F88051642002F008F890
:1004B000C4F880610427CBE701F055FB0C23BDA2F3
:1004C0000021142001F09AFD0C23BFA2142100206A
:1004D00001F094FD0C23C1A22121002001F08EFD2A
:1004E0004F4607E0CDF800800323FA8921213C2004
:1004F00001F0D5FC388A0028F4D001F034FBF989EA
:10050000022000F089FD50B100270C23B6A22D2156
:10051000384601F073FD584601F0D2FF1CE70C236A
:10052000B5A20021192001F069FD0C23B6A22121FA
:10053000002001F063FD5848143001F06FF8CDF849
:100540000080B9F814004F46C0F5967203232121AC
:10055000502001F0A4FCC4F88051642001F0B0FFE9
:10056000C4F8806140F6B83001F0AAFF3D82F889F6
:10057000401CF8813E807D80BD80FD80BDE8F88F05
:10058000584601F09DFF052FFAD2DFE807F0070675
:100590000504030090E76DE73AE709E7DCE67CB580
:1005A00000F08CFC002811D101F0DDFA012000F0F0
:1005B0009FFC60B1102398A200210A2001F01EFDCB
:1005C0004FF47A7001F07CFF01F0CDFA7CBD01ABF5
:1005D0004FF496720021012000F0DFFF0026354D18
:1005E00001244FF01003D8B18EA200210A2001F09F
:1005F00005FD01F0F6F9C5F88061FA2005F5C07532
:1006000001F05EFF2C6001F0ECF9FA2001F058FFD8
:100610002E60FA2001F054FF2C6001F0E2F9CFE7E0
:1006200084A200210A2001F0E9FCC5F88061642061
:1006300005F5C07501F044FF2C60642001F040FF17
:100640002E60642001F03CFF2C6010237DA2142159
:10065000002001F0D3FC0C237DA22821002001F012
:10066000CDFC0C237FA22821732001F0C7FC1020B1
:100670000090F9E044656C2046696E676572000081
:1006800053696E676C655F49443A0000486F6C655A
:100690005F5F5F49443A00000000002020202000F6
:1006A0003C3C2D0044656C2046696E676572204FA6
:1006B0004B00000000802142506C65617365207022
:1006C00075742046696E67657200000046696E6742
:1006D000657220580000000046696E676572204F01
:1006E0000000000046696E676572206E6F20490049
:1006F00046696E676572206F6B20490046696E67B8
:10070000657220416761696E0000000046696E678E
:10071000657220585800000046696E676572204F68
:100720004F00000046696E676572206E6F20494970
:100730000000000046696E676572204949000000AC
:1007400046696E67657220436F6D706572000000C8
:1007500046696E676572204D61746368204E4F0074
:100760004261636B20546F20537465702031000028
:1007700046696E676572204D61746368204F4B0057
:1007800043726561742046696E676572204D6F64BF
:1007900065000000437265617420556E7363636584
:1007A0007373000043726561742020205375636386
:1007B000657373004372656174204D6F64652049F1
:1007C000442020202000000020202020303C204910
:1007D00044203C323939202020000000496E7075D9
:1007E000742049443A0000004164642046696E6701
:1007F000676572204E4F00004164642046696E6751
:10080000676572204F6B00004C6566742049442078
:100810006E756D3A00000000437265617465204694
:1008200061696C00556E6B6E6F772046696E676507
:100830007200000046696E6420202046696E67657C
:100840007200000046696E6765722049443A0000F4
:1008500046696E6765722053696D692072617465BF
:100860003A00000025000000BDF8042003231421F5
:10087000502001F014FB0C200090BDF8060002236C
:1008800082082821642001F00AFB99E600F090FA22
:100890004FF47A740BE0204601F012FE0021102381
:1008A000D9A2084601F0AAFB204601F009FEDA4869
:1008B00000F0D9FE0028EED1D84C0125C4F8B05183
:1008C000C4F88001642004F5C07401F0F9FD2560CE
:1008D00000211023D2A2084601F090FB142110231E
:1008E000D3A2084601F08AFB4FF4487001F0E8FDFE
:1008F00001F039F92560FEE710B54FF400442046B9
:1009000003F008F90A2001F0DBFD2146CB4801F095
:10091000A8FF00280FD1CA4901200880BF48D0F89D
:10092000A411C943C0F8A41101F01DF9BDE810409D
:10093000642001F0C5BD10BD2DE9F0410A2001F091
:10094000BFFDBF4DBF4A00242888B44E4FF48077C6
:10095000012801D0F8B125E0698819BBA98809BB35
:10096000E988F9B939469046104601F07AFF60BB34
:100970003946404601F075FF0028F9D02889401C0F
:1009800080B22881032800D12C81D6F8A401C0436D
:10099000C6F8A4012EE06988012903D1A98809B904
:1009A000E98819B16988084310D026E03946904695
:1009B000104601F056FF40B93946404601F051FF5C
:1009C0000028F9D0E889401CE88113E0A8880128B4
:1009D00013D1E88888B939469046104601F041FFA6
:1009E00040B93946404601F03CFF0028F9D0A889BB
:1009F000C043A881384603F08DF8A84628462988C8
:100A000001278E4D012901D0A9B33EE042889ABB4F
:100A100082888ABBB8F8060070BB202003F07AF801
:100A20002021284601F01DFF20BB2021284601F08F
:100A300018FF0028F9D0D6F8A401C043C6F8A401D5
:100A4000B8F80810404621B1012906D002290AD081
:100A500061E047800480848002E0878004804480D5
:100A6000A8F8064004E0C78004804480A8F8044049
:100A700001F079F84FE000E007E04288012A04D154
:100A8000828812B9B8F8060028B1B8F802204046AA
:100A900011431ED03FE0202003F03CF820212846DF
:100AA00001F0DFFEB8BB2021284601F0DAFE002865
:100AB000F9D0D6F8A401C043C6F8A401A8F8107074
:100AC000A8F80070A8F80240A8F80440A8F806406A
:100AD00031E0818801291ED1B8F80600D8B920205C
:100AE00003F018F82021284601F0BBFE98B9202118
:100AF000284601F0B6FE0028F9D0B8F80C1089B1EC
:100B00000221A8F80A1000BF01F02DF8D6F8A401C0
:100B1000C043C6F8A401B8F800104046012904D02B
:100B2000E9B123E0A8F80A70EEE74288F2B98288BA
:100B3000E2B9C288D2B94021284601F092FE70BBCA
:100B40004021284601F08DFE0028F9D0D6F8A401F6
:100B5000C043C6F8A4014046A8F8004016E0428809
:100B6000012A03D182880AB9C2881AB14288114386
:100B700016D01AE04021284601F073FE78B94021D2
:100B8000284601F06EFE0028F9D032E044808480CF
:100B9000A8F8064000F0E7FF642001F091FC16E0A1
:100BA0008288012A01D1C28862B18288114329D189
:100BB000B8F80600012825D14021284601F051FE51
:100BC00088B104E04021284601F04BFE20B1BDE889
:100BD000F041402002F09EBF4021284601F041FE36
:100BE0000028F9D005E04021284601F03AFE00280F
:100BF000F9D0D6F8A401C043C6F8A4014046A8F82D
:100C00000070C3E7BDE8F08141533630385F4F468E
:100C100046203C2D5F2D3E002C000020008021420C
:100C200041533630385F5F4F4E203C5E5F5E3E0082
:100C3000436F6E6E6563745F4F4B0000000C0140A4
:100C400000000020000801407047FEE7FEE7FEE7D5
:100C5000FEE7704770477047704700000CB50021F1
:100C60004B4801910091026842F4803202604FF4D7
:100C7000A063026802F400320092019A521C0192B1
:100C8000009A12B9019A9A42F3D10268920333D5BD
:100C9000012100913F490A6842F010020A600A6887
:100CA00022F003020A600A6842F002020A60416808
:100CB000416041684160416841F480614160416840
:100CC00021F47C114160416841F4E8114160016800
:100CD00041F08071016001688901FCD5416821F013
:100CE00003014160416841F0020141604168C1F384
:100CF00081010229FAD10CBD00910CBD244810B528
:100D0000016841F0010101604168234A11404160DE
:100D10000168224A11400160016821F480210160CC
:100D2000416821F4FE0141604FF41F018160FFF72B
:100D300095FF1B494FF00060086010BD144910B5C5
:100D40004868184A10F00C03174803D0042B01D050
:100D5000082B0AD002604968134AC1F30311121D1F
:100D6000515C0268CA40026010BD4A684B6802F4D8
:100D700070124FF0020413F4803F04EB924202D051
:100D80004B689B0301D5094B00E0064B5A43E1E752
:100D900000100240002002400000FFF8FFFFF6FEB6
:100DA00008ED00E000127A001800002000093D0064
:100DB00038B5FFF7A3FF4FF4A06001F049FC4FF4F2
:100DC000614001F0C3FA00F0D1FD01F04BFB00F0EF
:100DD000E5FE00F062FF0121082001F0D2FE0120B3
:100DE000ADF8000002208DF802001020054C8DF8AF
:100DF00003006946204601F0DAFC0121204601F09B
:100E000044FD38BD000C014008B50121042001F06B
:100E1000B8FE4FF40070ADF8000028208DF80300F4
:100E200003208DF802006946FE4801F0C0FC08BDB1
:100E300010B5FD4C2068000E00F047FC2068C0F3A0
:100E4000074000F042FC2088C0F3072000F03DFC82
:100E50002078BDE8104000F038BC7CB50546EF2096
:100E60008DF8000001208DF80100EF48EF4C01687B
:100E7000080E8DF80200080C8DF80300080A8DF8A2
:100E8000040007208DF805108DF8060000268DF867
:100E9000076026800CE0012001F012FB208800048E
:100EA00006D526806946E24802F0D0FF002804D12A
:100EB0006D1E2D042D0CEED100207CBD10B500F070
:100EC0000CFCFFF7B5FF012000F0FFFB032000F052
:100ED0000CFC012000F0F9FB052000F010FC4FF4A1
:100EE000FA60FFF7BAFF08B1407A10BDFF2010BDCD
:100EF00010B5044600F0F1FBFFF79AFF012000F067
:100F0000E4FB042000F0F1FB022000F0DEFB2046B1
:100F100000F0DBFBE01D00F0F2FB4FF4FA60FFF79E
:100F20009CFF08B1407A10BDFF2010BD10B500F045
:100F3000D4FBFFF77DFF012000F0C7FB032000F08A
:100F4000D4FB032000F0C1FB072000F0D8FB4FF4D6
:100F5000FA60FFF782FF08B1407A10BDFF2010BD94
:100F60002DE9F0411E4614460D46074600F0B5FB3C
:100F7000FFF75EFF012000F0A8FB082000F0B5FBA2
:100F8000042000F0A2FB384600F09FFB280A00F086
:100F90009CFBE8B200F099FB200A00F096FBE0B25F
:100FA00000F093FB07EB1520E9B2084400EB142096
:100FB000E1B208440D3000F0A2FB4FF4FA60FFF7F5
:100FC0004CFF58B1C27A837A417A02EB0322328015
:100FD000427B007B02EB0020708000E0FF2108468E
:100FE000BDE8F08110B500F078FBFFF721FF01208C
:100FF00000F06BFB032000F078FB052000F065FBA0
:10100000092000F07CFB4FF4FA60FFF726FF08B1DF
:10101000407A10BDFF2010BD70B50C46054600F0AB
:101020005CFBFFF705FF012000F04FFB062000F0FE
:101030005CFB062000F049FB284600F046FB200A36
:1010400000F043FBE0B200F040FB05EB1420E1B2FE
:1010500008440D3000F053FB4FF4FA60FFF7FDFE3B
:1010600008B1407A70BDFF2070BD70B50C460546D2
:1010700000F033FBFFF7DCFE012000F026FB072029
:1010800000F033FB0C2000F020FB280A00F01DFBD1
:10109000E8B200F01AFB200A00F017FBE0B200F003
:1010A00014FBE8B200EB152000EB1420E1B2084479
:1010B000143000F024FB4FF4FA60FFF7CEFE08B1C5
:1010C000407A70BDFF2070BD10B500F006FBFFF741
:1010D000AFFE012000F0F9FA032000F006FB0D201E
:1010E00000F0F3FA112000F00AFB4FF4FA60FFF76A
:1010F000B4FE08B1407A10BDFF2010BD21283CD2BB
:10110000DFE800F011131517191B1D1F21232527D8
:101110003B3B3B3B27293B3B3B2B3B3B2D2F313381
:10112000353B3B37390043A0704743A0704746A08A
:1011300070474AA070474EA0704755A070475CA00A
:10114000704762A070476FA0704771A0704774A08D
:10115000704777A070477AA070477DA0704785A040
:10116000704788A070478AA070478DA0704791A0F3
:10117000704795A0704797A0704799A0704770B5C9
:101180000C46054600F0A9FAFFF752FE012000F0D8
:101190009CFA052000F0A9FA0E2000F096FA2846E5
:1011A00000F093FA204600F090FA2819143000F06D
:1011B000A6FA4FF4FA60FFF750FE10B1447A54B12A
:1011C00000E0FF242046FFF799FF014689A002F0C6
:1011D000BDFC204670BD89A002F0B8FCF9E770B5EF
:1011E000044600F07AFAFFF723FE012000F06DFAC2
:1011F000032000F07AFA0F2000F067FA132000F0C5
:101200007EFA4FF47A70FFF728FE48B1C17B827BEB
:10121000457A01EB022189B22180427CA270F7E07D
:1012200007E10000000801402C000020A00300207E
:10123000CC0300204F4B0000CAFDBEDDB0FCBDD387
:10124000CAD5B4EDCEF30000B4ABB8D0C6F7C9CF61
:10125000C3BBD3D0CAD6D6B800000000C2BCC8EB0E
:10126000D6B8CEC6CDBCCFF1CAA7B0DC0000000016
:10127000D6B8CEC6CDBCCFF1CCABB8C9A1A2CCAB51
:10128000B5ADB6F8C9FAB2BBB3C9CCD8D5F7000032
:10129000D6B8CEC6CDBCCFF1CCABCAAAA1A2CCAB3E
:1012A000BAFDB6F8C9FAB2BBB3C9CCD8D5F70000BD
:1012B000D6B8CEC6CDBCCFF1CCABC2D2B6F8C9FA47
:1012C000B2BBB3C9CCD8D5F700000000D6B8CEC6A3
:1012D000CDBCCFF1D5FDB3A3A3ACB5ABCCD8D5F77E
:1012E000B5E3CCABC9D9A3A8BBF2C3E6BBFDCCAB7D
:1012F000D0A1A3A9B6F8C9FAB2BBB3C9CCD8D5F767
:1013000000000000D6B8CEC6B2BBC6A5C5E400003A
:10131000C3BBCBD1CBF7B5BDD6B8CEC6000000005D
:10132000CCD8D5F7BACFB2A2CAA7B0DC0000000073
:10133000C9BEB3FDC4A3B0E5CAA7B0DC000000007D
:10134000C7E5BFD5D6B8CEC6BFE2CAA7B0DC00009D
:10135000BBBAB3E5C7F8C4DAC3BBD3D0D3D0D0A7E8
:10136000D4ADCABCCDBCB6F8C9FAB2BBB3C9CDBC0A
:10137000CFF10000B6C1D0B420464C41534820B351
:10138000F6B4ED00CEB4B6A8D2E5B4EDCEF30000CD
:10139000CEDED0A7BCC4B4E6C6F7BAC500000000D4
:1013A000BCC4B4E6C6F7C9E8B6A8C4DAC8DDB4ED73
:1013B000CEF30000BCC7CAC2B1BED2B3C2EBD6B82E
:1013C000B6A8B4EDCEF30000D6B8CEC6BFE2C2FADE
:1013D00000000000B5D8D6B7B4EDCEF30000000091
:1013E000C4A3BFE9B7B5BBD8C8B7C8CFC2EBD3D089
:1013F000CEF300000D0A2573000000000D0AC9E8B5
:10140000D6C3B2CECAFDB3C9B9A6A3A100000000DD
:10141000427D837C067D02EB0362C37C1B0403EBED
:1014200006231A446260C27D2272407E60725DB102
:1014300000E0FF252846FFF761FE0146AFF24C00B1
:1014400002F084FB284670BDB1A002F07FFBA178BA
:10145000B5A002F07BFBB8A0616802F077FB617A6F
:101460004FF416504143B7A0EAE770B5044600F0C8
:1014700034F9FFF7DDFC012000F027F9072000F028
:1014800034F9152000F021F9200E00F01EF9C4F304
:101490000740054600F019F9C4F30720064600F09E
:1014A00014F9E0B200F011F905EB14603044E1B238
:1014B00008441D3000F023F9A54E4FF4FA60346063
:1014C000FFF7CBFC18B1457A346065B101E0FF2528
:1014D00034602846FFF712FE0146AFF2E80002F042
:1014E00035FB284670BD9BA002F030FBF9E72DE9E3
:1014F000F0410E46074600F0F0F8FFF799FC012096
:1015000000F0E3F8242000F0F0F8182000F0DDF8F7
:10151000384600F0DAF80024305D00F0D6F8305D8F
:10152000641C2844E4B285B2202CF5D378193D30F0
:1015300080B200F0E4F84FF4FA60FFF78EFC08B1D7
:10154000407A4DE5FF204BE570B50C46054600F0AE
:10155000C4F8FFF76DFC012000F0B7F8042000F09C
:10156000C4F8192000F0B1F8284600F0AEF805F1F3
:101570001E0000F0C4F84FF4FA60FFF76EFC48B1AB
:10158000437A00228118897AA154521CD2B2202AAF
:10159000F8D300E0FF23184670BD2DE9F0411E4648
:1015A00014460D46074600F098F8FFF741FC01206D
:1015B00000F08BF8082000F098F81B2000F085F868
:1015C000384600F082F8280A00F07FF8E8B200F010
:1015D0007CF8200A00F079F8E0B200F076F807EB2A
:1015E0001520E9B2084400EB1420E1B2084424308D
:1015F00000F085F84FF4FA60FFF72FFC58B1C27A7B
:10160000837A417A02EB03223280427B007B02EB39
:101610000020708000E0FF210846E1E470B5044638
:1016200000F05BF8FFF704FC012000F04EF8032007
:1016300000F05BF81D2000F048F8212000F05FF872
:101640004FF4FA60FFF709FC474B012230B1417AB1
:10165000C57A807A05EB0020208000E0FF21C3F8E6
:10166000B021084670BD70B5044600F036F8FFF7AB
:10167000DFFB012000F029F8002000F026F8002010
:1016800000F023F8C82000F01BFF384A108800043F
:101690000BD5374900200B78EF2B05D14B78012B68
:1016A00002D18B79072B02D01080012070BD4B79BD
:1016B0008D7803EB0563CD7809792D0405EB0121C5
:1016C000194421601080002070BD2A490A88520602
:1016D000FCD52849091D0880704710B5EF20FFF799
:1016E000F4FFBDE810400120EFE710B50446C0F359
:1016F0000720FFF7EAFFE0B2BDE81040E5E710B5CC
:101700000446000AFFF7E1FFE0B2BDE81040DCE765
:101710000D0AC4A3BFE9D7EEB4F3D6B8CEC6C8DD70
:10172000C1BF3D25640000000D0AB6D4B1C8B5C8DC
:10173000BCB63D25640000000D0AB5D8D6B73D25DE
:10174000780000000D0AB2A8CCD8C2CA3D256400BA
:101750002C0000200D0AC9E8D6C3B5D8D6B7B3C946
:10176000B9A6A3A10000000000802142A003002030
:10177000CC03002000480040F0B589B001210820CA
:1017800001F0FFF90121022001F004FA0124ADF873
:101790001C4028208DF81F00704D03268DF81E6018
:1017A00007A9284601F003F80121284601F06DF849
:1017B00042F21070ADF810004720ADF80C00002583
:1017C000674FADF81250ADF80E5003A9384601F03E
:1017D00053FC0820ADF80000ADF80440ADF802500D
:1017E000ADF80650ADF808606946384601F0FCFDDA
:1017F0000121384601F0E9FE1D208DF818008DF812
:10180000194002208DF81A008DF81B4006A800F040
:1018100024FF01220921384601F0ECFE09B0F0BD99
:1018200070B54F4D0121284602F0F9F84D4C0128C2
:1018300014D12078010611D520F010002070010786
:1018400002D140F040002070C0B200F00F010E291C
:1018500001D2401C01E000F07000207008212846F1
:1018600002F0DDF801284BD13F48D0F8000158B113
:101870000221284602F012F80021284602F0A3F8BF
:10188000207840F010003AE0284602F0B5F8608079
:101890000021284602F002F82178C8062CD5080657
:1018A00060884FF4F9731DD5A0F22D129A4202D828
:1018B0006068400009E0A0F279524FF4C7739A4281
:1018C00005D86068400040F00100606014E0A0F6B8
:1018D0009900984210D8207A401C207201F0F00044
:1018E000207009E0A0F580506938984204D841F092
:1018F0008000207000202072207820F010002070DE
:101900002846BDE87040092102F095B830B5154A67
:1019100000201478610616D551686FEA11450B0E48
:10192000EDB29D420AD14BB9C1F30723C943C9B2F5
:10193000994203D1180001D0210604D424F04001BB
:1019400011700021117230BD622806D10648D0F80E
:10195000B0116FEA0101C0F8B0117047000C0140EE
:1019600000040040C00300200080214238B501215E
:10197000082001F006F94FF49050ADF80000102057
:101980008DF8030003201F4C8DF8020069462046A5
:1019900000F00DFF6115204600F077FFA1142046EE
:1019A00000F073FF38BD002242F2341306E000213C
:1019B000491C89B29942FBD3521C92B28242F6D39F
:1019C000704710B5104C0020C4F8A401642004F541
:1019D000D274FFF7E8FF01202060BDE810406420CA
:1019E000E1E710B5084C0020C4F8B001642004F50C
:1019F000D874FFF7D8FF01202060BDE810406420B4
:101A0000D1E70000000C01400080214208B504200D
:101A1000ADF8000010208DF8030002208DF80200C0
:101A20006946F84800F0C3FE08BD70B5FFF7EEFF49
:101A3000F54C0025C4F88851012004F5C47400F069
:101A400028FD01266660304600F023FD2660012057
:101A500000F01FFD656070BD08B50420ADF8000002
:101A60008DF8030002208DF802006946E54800F079
:101A70009EFE08BD10B5FFF7EFFFE34C0120C4F850
:101A80008C0104F5C67400F004FD0020206010BD38
:101A90002DE9F0410646FFF7B9FF0025DA4C2F4645
:101AA0004FF00108C4F88C71012000F0F2FC300600
:101AB00002D5C4F8888101E0C4F88871012000F0E3
:101AC000E8FCC4F88C81012000F0E3FC70066D1C7A
:101AD000060EEDB2082DE5D3C4F88C71BDE8F08197
:101AE00070B5FFF793FFC84C0125C4F8885128460C
:101AF00004F5C47400F0CDFC6560012000F0C9FC61
:101B000000252560012000F0C4FC656070BD10B5A3
:101B10000446FFF7E5FF7820FFF7BAFFFFF7AAFFBB
:101B20004020FFF7B5FFFFF7A5FF2046FFF7B0FF06
:101B3000FFF7A0FFBDE8104077E710B50446FFF7B8
:101B4000CFFF7820FFF7A4FFFFF794FF0020FFF7F7
:101B50009FFFFFF78FFF2046FFF79AFFFFF78AFFEF
:101B6000BDE8104061E770B55FF0000404F1B0001B
:101B7000C0B2FFF7E2FF0020FFF7DFFF1020FFF702
:101B8000DCFF00250020FFF7C2FF6D1CEDB2802DA9
:101B9000F8D3641CE4B2082CE8D370BD08B5012169
:101BA000042000F0EEFF0820ADF8000002208DF8C0
:101BB000020010208DF803006946924800F0F7FDFE
:101BC000AE20FFF7BAFF0020FFF7B7FF1020FFF7A6
:101BD000B4FF4020FFF7B1FFB020FFF7AEFF812038
:101BE000FFF7ABFFFF20FFF7A8FFA120FFF7A5FF3E
:101BF000A620FFF7A2FFA820FFF79FFF3F20FFF7D7
:101C00009CFFC820FFF799FFD320FFF796FF002025
:101C1000FFF793FFD520FFF790FF8020FFF78DFFA0
:101C2000D820FFF78AFF0520FFF787FFD920FFF7AD
:101C300084FFF120FFF781FFDA20FFF77EFF1220FB
:101C4000FFF77BFFDB20FFF778FF3120FFF775FF01
:101C50008D20FFF772FF1420FFF76FFFAF20FFF713
:101C60006CFF642000F02CFCFFF77DFF08BD10B571
:101C700004467F2810D83F290ED8C808B030C0B21B
:101C8000FFF75BFF102000EB1410FFF756FF04F086
:101C90000F00BDE8104050E710BD10B58D20FFF7D4
:101CA0004CFF1420FFF749FFBDE81040AF2044E788
:101CB00010B58D20FFF741FF1020FFF73EFFBDE874
:101CC0001040AE2039E72DE9F04788468146A2EB67
:101CD0000900A3EB0801C0B2C1F3C405089E05FBCF
:101CE00000F706B1FF26002413E000BFB4FBF5F0B7
:101CF000B4FBF5F205FB104108EBC100C1B202EBE9
:101D00000900C0B2FFF7B3FF3046FFF700FF641CC5
:101D1000A4B2BC42EAD3BDE8F0872DE9F047203AEF
:101D200006460D46D0B20C2B24D0102B3CD0182BDD
:101D3000F1D1364900EBC000002401EB80084FF0E0
:101D4000030900BF4846B4FBF0F1B4FBF9F009FB0E
:101D5000114105EBC101304418F80470C9B2C0B29A
:101D6000FFF785FF3846FFF7D2FE641CE4B2242C4F
:101D7000E8D3D0E7264900EB4000002401EB8008BF
:101D800004F0010005EBC000C1B206EB540018F8E6
:101D90000470C0B2FFF76BFF3846FFF7B8FE641C53
:101DA000E4B20C2CECD3B6E71A49002401EB00187E
:101DB00004F0010005EBC000C1B206EB540018F8B6
:101DC0000470C0B2FFF753FF3846FFF7A0FE641C53
:101DD000E4B2102CECD39EE703460120002202E07F
:101DE0005843521CD2B28A42FAD370472DE9FF5FA2
:101DF000814616460027012011469A460A22DDF840
:101E000038B00DE00008014000002142A868000839
:101E1000445E0008B8620008B1FBF2F1401CC0B299
:101E20000929F9D804464FEA5B051EE0A0F1010834
:101E300008F0FF010A20FFF7CFFFB6FBF0F03030CB
:101E4000C2B205FB0790C0B25B460199FFF765FF80
:101E500008F0FF010A20FFF7BFFFB6FBF0F100FB1F
:101E600011667F1CFFB208F0FF000028DED10026BB
:101E7000AAEB040705FB04F80DE000BF05FB068193
:101E800001EB0900C0B25B4620220199FFF745FF34
:101E9000761CF6B27F1E002FF0DCBDE8FF9F2DE917
:101EA000F8431E46089C1500884607460CD5234675
:101EB0002D22FFF732FF6A42761C07EB5400F3B283
:101EC000C0B24146009400E00094FFF78FFFBDE8E8
:101ED000F8832DE9FF5F82B014461D4600270126D6
:101EE00010461946DDF8408003F000FD019003F034
:101EF0002CFD22462B4603F0ABFE81468A46DFF8D6
:101F000050B309E0761CF6B20022D24B2046294697
:101F100003F094FB04460D4600225B46204629460A
:101F200003F060FEEED311980090DDE90201334624
:101F3000019AFFF7B4FF119802994FEA500B0BFB7F
:101F40000610C0B22E22119B0399FFF7E6FE0299FC
:101F5000761C0BFB0610C6B220E00022BD4B4846A3
:101F6000514603F041FD0D46044603F0BFFC0090CE
:101F700003F0EBFC22462B4603F06AFE81460098F4
:101F80008A463030C2B20BFB0760C0B2119B039986
:101F9000FFF7C3FE7F1CFFB2A8F10108B8F1000FE4
:101FA000DBD106B0BDE8F09F2DE9FC4714461D4685
:101FB000DDE90A76894680460022134620462946F6
:101FC00003F0D6FC0FD233462D2249464046FFF798
:101FD000A4FECDE9007608EB5600224685F00043CA
:101FE000C0B2494606E07F1CCDE9007622462B466A
:101FF00049464046FFF76DFFBDE8FC872DE9F047F5
:1020000004461F46802016460D46A0EB5709C3F133
:10201000400814E0A14502D20024E819C5B2A84541
:1020200003DA00242546FFF79EFD32783B46294619
:102030002046FFF772FE04EB5700C4B2761C3078DE
:1020400020385E28E6D966E62DE9F05F90468A469C
:102050008346002430E0002606EB860000EBC60134
:102060007D4818F8042010F811309A421ED1641CE3
:10207000E4B200EB410918F8042099F8010082420B
:1020800014D1002509EB050005F0010187780AEB62
:10209000C100C1B20BEB5500C0B2FFF7E8FD3846F6
:1020A000FFF735FD6D1CEDB2182DEBD3761CF6B2A3
:1020B000192ED1D3641CE4B218F804000028CAD148
:1020C00070E7F8B517460E460546002414E000BF39
:1020D0008DF8000038196A4640788DF801003146C5
:1020E0002846FFF7B1FF0C35EDB2C82D02D9002507
:1020F000B61CF6B2A41CE4B2385D0028E8D1F8BDE5
:102100002DE9F05F90468A468346002430E00026A1
:1021100006EB860000EBC601504818F8042010F8C2
:1021200011309A421ED1641CE4B200EB410918F848
:10213000042099F80100824214D1002509EB050022
:1021400005F0010187780AEBC100C1B20BEB550025
:10215000C0B2FFF78CFD3846FFF7D9FC6D1CEDB21D
:10216000182DEBD3761CF6B2192ED1D3641CE4B231
:1021700018F804000028CAD114E72DE9F05F904652
:102180008B468146002631E05FF00005334805EBC1
:102190000511343018F8062010F811309A4221D178
:1021A00008EB060200EB410A52789AF801008242DD
:1021B00018D100240AEB040004F0010187780BEB2E
:1021C000C100C1B209EB5400C0B2FFF750FD384660
:1021D000FFF79DFC641CE4B2202CEBD309F108004E
:1021E00000F0FF096D1CEDB2192DCFD318F80600D1
:1021F0000028C9D1D6E62DE9F05F924602F001032E
:10220000002401EBC30900EB5A084FF4907B00BF98
:1022100004EBC40000EB84111048783050F82130F2
:10222000534510D1002500EB8107781909F0FF0113
:10223000067908F0FF00FFF71AFD3046FFF767FC4C
:102240006D1C5D45F1DB641CE4B2192CE0D3A9E6FA
:102250000000224000002440300000200402002042
:1022600010B5224C0121204601F0D9FB00280ED0E8
:102270001F48018841F4004101800121204601F0FE
:10228000DAFB2046BDE81040002101F09EB910BDE8
:102290007FB50C4605460121042000F07BFCADF81B
:1022A0000450ADF800400024104DADF80640ADF8E4
:1022B00002406946284600F0DFFE0122114628460A
:1022C00001F098F90121284601F07FF91E208DF8D0
:1022D0000C008DF80D4002208DF80E0001208DF8C5
:1022E0000F0003A800F0B9F97FBD0000000800400E
:1022F000A003002070B5554C40F22551204600F057
:10230000F3FD00281CD0204600F087FD504CC5B2DC
:102310002088000414D42088B0F5C87F11D24D4E17
:102320000021304601F04FFB208818B901213046CA
:1023300001F04BF9208848490144401C20800D7071
:1023400070BD208840F40040208070BDF0B5044688
:1023500087B00121082000F014FC0121880400F05E
:1023600019FC3A4E304600F05BFC3015ADF8100019
:1023700003258DF812501820384F8DF8130004A94A
:10238000384600F014FAF014ADF8100048208DF82B
:10239000130004A9384600F00AFA00940024ADF8AE
:1023A00008400C20ADF80440ADF80A00ADF8064036
:1023B000ADF80C406946304600F062FC0121304621
:1023C00000F0D1FC012240F22551304600F0D5FC4E
:1023D00027208DF8140002208DF815008DF8165076
:1023E00001208DF8170005A800F037F941F61F41CC
:1023F0006320FFF74DFF164804800021154801F0C7
:10240000E4F807B0F0BD0FB415482DE9F04107AA74
:10241000069901F089FB124801F02AFD86B20024DA
:102420000A4D0F4F0BE04021284600F053FD0028D5
:10243000F9D0395D284600F0ECFC641CA4B2B4422B
:10244000F1D3BDE8F0015DF814FB00000048004046
:10245000A003002000080040CC030020000C014035
:102460005C05002010B56FF0040000F036F920483C
:1024700020490068B0FBF1F0C1B21F4801EB4102F6
:102480000170C2EBC1114FF6FF7202EAC101418037
:1024900010BD1949097848434FF0E02148610022F6
:1024A0008A61086940F0010008610869C30701D02A
:1024B000C003FAD5086920F0010008618A617047FD
:1024C0000D49498848434FF0E021486100228A6164
:1024D000086940F0010008610869C30701D0C00322
:1024E000FAD5086920F0010008618A617047000090
:1024F0001800002000127A00A20300207047404913
:102500000A885206FCD53E4AC1B2121D118070479E
:1025100070B5054686B0012144F2040000F031FB9D
:102520004FF40070ADF8100003248DF8124018200D
:10253000344E8DF8130004A9304600F038F93015F8
:10254000ADF8100004208DF8130004A9304600F007
:102550002EF925208DF814008DF815408DF81640C1
:1025600001208DF8170005A800F077F80020ADF8DD
:102570000400ADF80600ADF80800ADF80C000C2022
:102580001F4CADF80A0000956946204600F078FB24
:10259000012240F22551204600F0EFFB01212046A8
:1025A00000F0E1FB06B070BD70B5154C40F225514E
:1025B000204600F099FC00280ED0204600F02DFCAB
:1025C000C2B2114801880B0406D44C044FF000033A
:1025D00006D50A2A01D0038070BD41F400410DE008
:1025E0000D2A09D0C1F30D04084D491C89B22A55A2
:1025F0000180C729EFD870BD41F48041018070BDD2
:102600000038014000080140A6030020EC0600202D
:102610000948804709480047FEE7FEE7FEE7FEE776
:10262000FEE7FEE7FEE7FEE7FEE7FEE704480549B2
:10263000054A064B70470000FD0C0008ED0000083D
:1026400018080020180E0020180A0020180A002080
:102650002849084328490860704770B50F23C4789B
:1026600001780122F4B1244C2468457804F4E06434
:10267000C4F5E064240AC4F10406E3408478B5405C
:102680001C402C4301F1E021230181F80034007843
:1026900000F01F018A404009800000F1E020C0F8EE
:1026A000002170BD01F01F0082404809800000F148
:1026B000E020C0F8802170BD104A114001430E484F
:1026C000001F016070470C4A121D0029116801D0DB
:1026D000014300E08143116070474FF0E02104287E
:1026E000086903D020F004000861704740F004003E
:1026F000FAE700000000FA050CED00E080FFFF1F84
:10270000914910B5884206D10121042000F04BFA0E
:10271000002104203BE08D49884206D10121082098
:1027200000F041FA0021082031E08949884206D1B1
:102730000121102000F037FA0021102027E0854900
:10274000884206D10121202000F02DFA002120200E
:102750001DE08149884206D10121402000F023FA82
:102760000021402013E07D49884206D101218020CC
:1027700000F019FA0021802009E0794988420AD145
:1027800084150121204600F00EFA00212046BDE804
:10279000104000F008BA10BD10B50121084600F045
:1027A00002FA0021BDE81040012000F0FCB9F0B5AC
:1027B000CA78002502F00F03D20601D58A781343A8
:1027C0000A784FF00F0E12F0FF0F4FF001021DD0EC
:1027D000D0F800400F8802FA05F63740B74211D111
:1027E0004FEA850C0EFA0CF724EA070703FA0CF4FB
:1027F0003C43CF78282F02D0482F02D002E0466118
:1028000000E006616D1C082DE4D304600C88FF2CE9
:102810001ED944685FF0000606F1080702FA07F5C2
:102820000F882F40AF420FD14FEA860C0EFA0CF7FB
:10283000BC4303FA0CF73C43CF78282F00D1456105
:10284000CF78482F00D10561761C082EE4D3446070
:10285000F0BD4FF6FF710180022181700421C1702B
:1028600070470246002092680A4200D0012070475B
:10287000806880B2704702460020D2680A4200D0C9
:1028800001207047C06880B27047016170474161A4
:1028900070470AB10161704741617047C16070477C
:1028A00041F480328261816182618169806970470F
:1028B0002C4B10B51A684FF68074224042EA001083
:1028C0000843186010BD2849C8617047F0B5254C11
:1028D000002801DAE36900E06368420D120185B265
:1028E000C0F301579540C0F30346032F05D0C20241
:1028F0000AD50322B240934307E023F07062636875
:1029000023F07063636002E0AB4343F0706201B197
:102910002A43002801DAE261F0BD6260F0BD10B523
:102920008A0721F003040F49130F21440F228C68FA
:102930009A4094438C608A68984002438A6010BD34
:102940000949C1F8DC00704700080140000C014053
:10295000001001400014014000180140001C01401B
:10296000002001400000014000002042A44801680E
:1029700041F0010101604168A24A114041600168D3
:10298000A14A11400160016821F480210160416881
:1029900021F4FE0141604FF41F01816070479849A6
:1029A0000A6822F480320A600A6822F480220A60EF
:1029B000B0F5803F07D0B0F5802F03D1086840F410
:1029C000A02008607047086840F48030F9E70246AC
:1029D000002053098A49012B0AD0022B0AD0496AE8
:1029E00002F01F02012393400B4200D001207047E8
:1029F0000968F5E7096AF3E718B500204FF4A06409
:102A000000903120FFF7E3FF0099491C0091A1429B
:102A100001D00028F5D03120FFF7D9FF002800D0E1
:102A2000012018BD76490A6822F0F80242EAC00087
:102A300008607047754908607047714A53680843D9
:102A400023F47C1318435060704770490866704740
:102A50006B4A516821F00301014351607047684897
:102A6000406800F00C007047654A516821F0F001A1
:102A7000014351607047624A516821F4E0610143AB
:102A8000516070475E494A6822F4605242EAC000D1
:102A9000486070475A4A0029517A01D0014300E04A
:102AA0008143517270475949C1F8D8007047544A60
:102AB000516821F440410143516070475049002260
:102AC00081F8202081F82020012802D0042802D19A
:102AD000052081F8200070474D490860704748493B
:102AE0000A6A02430A6270474949443908607047DC
:102AF00030B543494A6812F00C03464A03D0042B10
:102B000001D0082B21D002604A680F23424C03EA0F
:102B10001212A35C0268DA4042604B68072505EA9E
:102B20001323E35C22FA03F383604B6805EAD323A3
:102B3000E35CDA40C2604968032303EA9131231F52
:102B4000595CB2FBF1F1016130BD4A684B6802F497
:102B500070124FF0020413F4803F04EB924202D053
:102B60004B689B0301D52D4B00E02A4B5A43CAE723
:102B7000234A0029516901D0014300E0814351619A
:102B800070471F4A0029916901D0014300E0814349
:102B9000916170471A4A0029D16901D0014300E0D0
:102BA0008143D1617047164A0029D16801D00143A1
:102BB00000E08143D1607047114A0029116901D0BA
:102BC000014300E0814311617047114940390860B9
:102BD00070470E49C86470470949C8717047084872
:102BE000416A41F0807141627047054A0146002008
:102BF00092680A4200D001207047014988727047EC
:102C0000001002400000FFF8FFFFF6FE0000424205
:102C10008004424200127A00B003002000093D0007
:102C2000C44910B588420AD101218C032046FFF720
:102C3000BAFF2046BDE810400021FFF7B4BFBE49EF
:102C4000884202D101214C0410E0BC49884202D1E3
:102C500001218C040AE0BA49884202D10121CC0446
:102C600004E0B84988420AD101210C052046FFF74B
:102C7000A3FF2046BDE810400021FFF79DBF10BD17
:102C800030B50446008A85B00D464CF6FF71084009
:102C9000E98801432182A1894EF6F3100140A888FA
:102CA0002A8910436A890A431043A081A08A4FF6FB
:102CB000FF410840A9890143A1826846FFF718FF38
:102CC0009C48844201D1039800E00298A18909043C
:102CD00000EBC00101EB0010296801D5490000E0BC
:102CE0008900B0FBF1F06422B0FBF2F109010B099D
:102CF0006FF018056B4300EB8300A3891D044FF0B0
:102D0000320306D503EBC000B0FBF2F000F0070081
:102D100005E003EB0010B0FBF2F000F00F000843F9
:102D2000208105B030BD4FF4165101600021818033
:102D3000C18001810C2242818181704710B5038AD4
:102D40004FF2FF0213400A884C8822438C88C988BE
:102D50000C4322431A43028210BD002101804180AE
:102D60008180C18070470029818902D041F40051DF
:102D700001E021F400518181704710B5C1F3421385
:102D800001F01F040121A140012B07D0022B07D025
:102D90001430002A026805D00A4304E00C30F8E73A
:102DA0001030F6E78A43026010BD002A828A01D003
:102DB0000A4300E08A4382827047028A22F00F02AF
:102DC0000282028A0A4302827047828922F40062E8
:102DD000828182890A43828170470029818902D0D9
:102DE00041F0020101E021F0020181817047028A75
:102DF00022F020020282028A0A43028270470029DE
:102E0000018A02D041F4804101E021F48041018235
:102E10007047C1F30801818070478088C0F30800C3
:102E20007047818941F0010181817047028BD2B2E4
:102E30000283028B42EA012101837047028B02F474
:102E40007F420283028B0A43028370470029818AF2
:102E500002D041F0200101E021F020018182704781
:102E60000029818A02D041F0100101E021F0100117
:102E7000818270470029818A02D041F0080101E077
:102E800021F00801818270470029818902D041F434
:102E9000004101E0C1F30E01818170470029818A60
:102EA00002D041F4006101E021F4006181827047A9
:102EB000828A22F004028282828A0A4382827047D6
:102EC0000029818A02D041F0020101E021F00201D3
:102ED000818270470246002012880A4200D00120F9
:102EE0007047C9430180704730B501F01F020124CB
:102EF0000025C1F3421304FA02F2012B0FD0022B7A
:102F00000FD0838A4FEA11210088134204FA01F49A
:102F100000EA040001D000B10125284630BD8389B4
:102F2000F0E7038AEEE70A0A01219140C9430180D4
:102F30007047000000380140004400400048004055
:102F4000004C004000500040F94910B5884202D1C1
:102F50000121C41486E0B0F1804F09D0F5498842C0
:102F60000DD101210220FFF727FE0021022064E09D
:102F700001210846FFF720FE002101205DE0EE4917
:102F8000884206D101210420FFF716FE002104200B
:102F900053E0EA49884206D101210820FFF70CFEE0
:102FA0000021082049E0E649884206D1012110208D
:102FB000FFF702FE002110203FE0E249884206D1DF
:102FC00001212020FFF7F8FD0021202035E0DE4917
:102FD000884202D10121441444E0DC49884202D1F4
:102FE0000121CC043EE0DA49884202D101210C05DE
:102FF00038E0D849884202D101214C0532E0D64957
:10300000884206D101214020FFF7D6FD0021402053
:1030100013E0D249884206D101218020FFF7CCFD80
:103020000021802009E0CE4988420AD1841501217F
:103030002046FFF7C1FD00212046BDE81040FFF704
:10304000BBBDC849884202D101210C040AE0C6492F
:10305000884202D101214C0404E0C44988420AD1CB
:1030600001218C042046FFF79EFD2046BDE810405C
:103070000021FFF798BD10BD30B50288AC4BB24CB3
:1030800098420DD0A0420BD0B0F1804F08D0A94D8E
:10309000A84205D0A84DA84202D0A84DA84203D10D
:1030A00022F070054A882A43A54DA84206D0A54DB6
:1030B000A84203D022F44075CA882A4302808A8835
:1030C00082850A88028598420AD0A04208D0A54A83
:1030D000904205D0A44A904202D0A44A904201D125
:1030E000097A01860121818230BD30B5028C22F03F
:1030F00001020284028C8388048B22F0020224F0F5
:1031000073050C882C430D8915434A882A43884D42
:10311000A8420BD08C4DA84208D0924DA84205D0B1
:10312000914DA84202D0914DA8420DD122F0080540
:103130004A8923F440732A4322F004058A882A43EB
:103140008D891D43CB892B4383800483C988818665
:10315000028430BD70B5028C22F010020284028C11
:103160008488038B0D8823F4E6464FF6FF7303EA49
:10317000052535430E8922F0200203EA0616164380
:103180004A8803EA02123243694EB04202D06E4EC0
:10319000B04215D122F080064A8924F4406403EA43
:1031A0000212324322F040068A8803EA02123243B6
:1031B0008E8903EA86062643CC8903EA84043443D5
:1031C00084800583C9880187028470BD70B5028C34
:1031D00022F480720284028C8488838B0D8823F011
:1031E00073031D4322F400730E894FF6FF7202EA47
:1031F00006261E434B8802EA032333434C4EB0425B
:1032000002D0514EB04215D123F400664B8924F40C
:10321000405402EA0323334323F480668B8802EA96
:10322000032333438E8902EA06162643CC8902EA39
:103230000414344384808583C9888187038470BDE6
:1032400070B5028C22F480520284048C8288838BB5
:103250000D8823F4E6464FF6FF7303EA0525354350
:1032600024F400560C8903EA043434434E8803EAFC
:10327000063626432E4CA04202D0334CA04205D144
:1032800022F480448A8903EA821222438280858361
:10329000C988A0F84010068470BD828B22F4406279
:1032A0008283828B4FF6FF7303EA01210A438283F4
:1032B0007047828B22F00C028283828B0A438283C6
:1032C0007047028B22F440620283028B4FF6FF7339
:1032D00003EA01210A4302837047F0B5048C24F00D
:1032E00010040484078B048C4FF6FF7527F4734792
:1032F00005EA03333B4305EA02221A430C4B05EA75
:10330000011698420ED0104B98420BD0B0F1804F6E
:1033100008D0084B984205D0074B984202D0074B83
:10332000984225D124F02001314341F0100124E0DE
:10333000002C01400004004000080040000C004048
:10334000001000400014004000340140004C0140D7
:10335000005001400054014000180040001C004093
:10336000002000400040014000440140004801406E
:1033700024F0A0030B4343F0100102830184F0BD4D
:10338000028B22F00C020283028B0A4302837047F5
:1033900070B5048C24F001040484058B048C4FF672
:1033A000FF7606EA0313134325F0F305F94A2B438E
:1033B00090420ED0F84A90420BD0B0F1804F08D026
:1033C000F64A904205D0F64A904202D0F54A904221
:1033D00002D124F0020201E024F00A020A4342F082
:1033E00001010383018470BD2DE9F05F0D460446A1
:1033F0000888E84FDFF8A0C3DFF8A0834988AA88CF
:103400002B894FF0804960B3042832D04FF6FF7EFD
:10341000082836D0208C9B4620F480502084A38B33
:10342000268C704600EA022223F473431A4300EA12
:103430000B3010430EEA013EBC420BD0644509D06C
:103440004C4507D0444505D0D54A944202D0D54BCF
:103450009C4245D126F4005141EA0E0141F48051CD
:1034600043E02046FFF794FFE9882046BDE8F05F7F
:1034700086E72046FFF731FFE9882046BDE8F05F88
:103480001FE7208C20F480702084B4F81CA0208CCE
:103490000EEA031313432AF0F30A0EEA012B43EA60
:1034A0000A03BC420BD0644509D04C4507D04445C3
:1034B00005D0BB4A944202D0BA4A944204D120F4C7
:1034C000007040EA0B0002E020F42060084340F462
:1034D0008070A3832084E9882046BDE8F05FE8E699
:1034E00026F402420A4342F48051A08320462184FC
:1034F000E988BDE8F05FD0E62DE9F0410C460026F2
:1035000049880746012501B90226A288012A00D16F
:103510000225208823890028384610D0FFF7DDFED9
:10352000E1883846FFF7CDFE23892A4631463846E2
:10353000FFF72EFFE1883846BDE8F04120E7FFF7AE
:1035400027FFE1883846FFF71BFF23892A463146CB
:103550003846FFF7C2FEE1883846BDE8F041B0E6E4
:1035600010B50A884B88CC881A438B8823431A43AA
:103570000B891A434B8989891A430A43A0F84420CE
:1035800010BD4FF6FF71818000210180C180418014
:10359000017270470021018041808180C1800181DA
:1035A00041818181C18170470021018041800122D8
:1035B0008280C1800181704700210180418081802B
:1035C000C18001814181818170470029018802D039
:1035D00041F0010101E021F0010101807047002963
:1035E00030F8441F02D041F4004101E0C1F30E0164
:1035F00001807047002A828901D00A4300E08A4393
:1036000082817047818270471143A0F8481070474B
:10361000002A828901D00A4300E08A4382817047F0
:10362000018921F0070101817047028922F07002AF
:103630000A430281704700B50346FFF7F6FF188979
:1036400040F00700188100BD70B516460D46602990
:1036500004464FF0010231460AD0FFF799FE294691
:103660002046FFF7E2FF208940F00700208170BD6F
:10367000FFF733FEF3E730B504894FF6FF7505EA2F
:1036800003231343E4B20B432343038130BD10B53E
:103690000446FFF7F0FF208940F07700208110BD3D
:1036A00010B50446FFF7E7FF208940F480402081F1
:1036B00010BD018582827047028822F070020A43A1
:1036C0000280704770B50589048B068C25F00705CC
:1036D0000D434FF6FC410C4040F201110C434FF6F4
:1036E000FF7101EA031126F02206114331430581DF
:1036F0000483018470BD028B22F070020A430283AE
:103700007047028B4FF6FF7322F4E04203EA012177
:10371000114301837047828B22F070020A43828337
:103720007047828B4FF6FF7322F4E04203EA0121D7
:103730001143818370470029018802D041F0800144
:1037400001E021F08001018070470029818802D0CA
:1037500041F0040101E021F004018180704700295B
:10376000818802D041F0080101E021F00801818048
:1037700070470029818802D041F0010101E021F069
:10378000010181807047028B22F008020A43028304
:1037900070470000002C014000340140000400404C
:1037A00000080040000C0040028B4FF6FF7322F42B
:1037B000006203EA012111430183E9E7828B22F0D1
:1037C00008020A438283E3E7828B4FF6FF7322F4F9
:1037D000006203EA012111438183D9E7028B22F0C1
:1037E00004020A430283D3E7028B4FF6FF7322F4ED
:1037F000806203EA012111430183C9E7828B22F031
:1038000004020A438283C3E7828B4FF6FF7322F4DC
:10381000806203EA012111438183B9E7028B22F020
:1038200080020A430283B3E7028B4FF6FF73C2F3B1
:103830000E0203EA012111430183A9E7828B22F0E2
:1038400080020A438283A3E7828B4FF6FF73C2F3A1
:103850000E0203EA01211143818399E7028C22F0D1
:1038600002020A43028493E7028C22F008020A4310
:1038700002848DE7028C4FF6FF7322F0200203EAE8
:1038800001111143018483E7028C4FF6FF7322F08C
:10389000800203EA01111143018479E7028C4FF69B
:1038A000FF7322F4007203EA0121114301846FE7E0
:1038B000028C4FF6FF7322F4006203EA01211143E8
:1038C000018465E7028C4FF6FF7322F4005203EA8D
:1038D0000131114301845BE710B50123048C8B4057
:1038E0009C430484038C8A401343038410BD10B5A9
:1038F0000423048C8B409C430484038C8A40134330
:10390000038410BD30B50124058C00F118038C40F0
:10391000A543058489B108290FD0091FC1F34E00C2
:103920001844016821F4E041016001684FF6FF731B
:1039300003EA02221143016030BD03EB510001682C
:1039400021F0700101600168F4E70029018802D0CC
:1039500041F0020101E021F00201018018E7002995
:10396000018802D041F0040101E021F0040101804E
:103970000EE70029818802D041F0800101E021F0AA
:103980008001818004E7028822F008020280028818
:103990000A430280FCE6828822F0700282808288DC
:1039A0000A438280F4E6028922F00702028102893A
:1039B0000A430281ECE6028922F080020281028938
:1039C0000A430281E4E68184E2E68185E0E68186BD
:1039D000DEE60187DCE68187DAE6A0F84010D7E66C
:1039E000028822F44072028002880A430280CFE6F5
:1039F000808ECDE6008FCBE6808FC9E6B0F8400020
:103A0000C6E6808CC4E6008DC2E602460020128A1B
:103A10000A4200D00120BBE6C9430182B8E6024653
:103A20000020138A92890B4202EA010202D0002A86
:103A300000D00120ACE6C9430182A9E63749002045
:103A40000860091D0860091D0860091D08603349E8
:103A5000334814310860704730B5304983790268C3
:103A600053B30B6893430B600A1D13680468A343A8
:103A7000136002790A441368046823431360274AD9
:103A8000083213680468A3431360131D1C6805689B
:103A9000AC431C604479102C05D021440A680068AE
:103AA00002430A6030BD116804682143116019683F
:103AB00000680143196030BD0079084401689143F2
:103AC000016030BD0021016001710C2242718171E1
:103AD0007047124910310A6802430A607047014674
:103AE0000E4A0020143212680A4200D001207047AA
:103AF0000A49143108607047084A014600201268DC
:103B0000064B0A4014331B680B4202D0002A00D037
:103B100001207047014914310860704700040140DA
:103B2000FFFF0F00704700001CB50C46064B7B449E
:103B300069460090204600F06AFA04460020694673
:103B400000F078FA20461CBD030500000FB40449BC
:103B500010B503AA029800F089FA10BC5DF814FBB6
:103B6000A803002070B50C460546012A05D0287828
:103B7000800600D5EA69002302E0012305E05B1C12
:103B8000934202D2E05C0028F9D1A869E618C01A75
:103B9000A861286A18442862284600F08CF904E0DD
:103BA000D5E9012114F8010B9047B442F8D3284617
:103BB00000F097F970BD00002DE9F04106460024A1
:103BC00010687529314616A510D000F09BF9002821
:103BD00002DA404213A507E031688A0701D512A531
:103BE00002E0490704D511A5012401E000F093F992
:103BF00000210A2206F1240709E0B0FBF2FCB0FB29
:103C0000F2F302FB1C00303078541846491C00289F
:103C1000F3D123462A463046BDE8F04100F084B98E
:103C2000000000002D0000002B000000200000001C
:103C3000F0B40D460188090502D5214C7C4402E010
:103C40001F4C7C440E34002100F1240608E002F0F1
:103C50000F071209E75D42EA03721B097754491CFA
:103C600052EA0307F3D102780023120704D5702D1E
:103C700006D009B1022311342246F0BC00F054B939
:103C800001231034F8E770B504460D46214610684C
:103C900000F041F9024629462046BDE87040002365
:103CA000C6E7D21D22F00703D3E90023C0E703686B
:103CB000126843F0200303600823C3610023B7E7C1
:103CC000C43900002DE9F05F894604464FF0000A30
:103CD000DFF874B1FB44C0F820A02046E1688847B3
:103CE000002874D0252806D0D4E901219047206A05
:103CF000401C2062F1E700265F462046E1688847C5
:103D00002028054607DB312D05D2781910F8200C44
:103D100008B10643F1E7B00701D526F00406C4F860
:103D20001CA00027C4F818A02A2D09D0284601F0AD
:103D30009DFB38B304EB8708303DC8F8185019E0F4
:103D400059F8041B204604EB87029161E16888471B
:103D5000012F054618D1E069002820DA26F0200658
:103D60001DE0D8F8180000EB800005EB400030386B
:103D7000C8F818002046E1688847054601F076FB40
:103D80000028EED1012F0AD02E2D08D12046E1685F
:103D900088477F1C0546022F46F02006C4DBA06939
:103DA000002803DA404246F00106A061F00701D086
:103DB00026F010066C2D0BD0682D09D04C2D39D073
:103DC0006A2D35D0742D35D07A2D33D016E038E0F9
:103DD000E1682F4620468847B842054609D16C2F36
:103DE00026D04FF48060E1680643204688470546A8
:103DF00004E06C2F1AD04FF4807006430DB3A5F188
:103E00004100192802D8203546F400664A46294662
:103E1000204626604E46FCF7C3F980B101280BD03E
:103E2000F61D26F0070000F1080956E74020E4E7F8
:103E30008020D8E70020D6E706F104094DE72846A0
:103E400052E7206ABDE8F09F5439000030B50546BE
:103E50000B462A4613F8014B12F8010B08B1A04299
:103E6000F8D01CB1002802D06D1CF1E7284630BD07
:103E700010B5431C02E010F8011B71B18107FAD1A3
:103E80004FF0013202C88C1A8C4314EAC211F9D0E7
:103E9000C01A0A0603D0C01E10BDC01A10BD0A0405
:103EA00001D0801E10BD0902FCD0401E10BD70471D
:103EB00070477047704770B5044685690068C10651
:103EC00001D5302600E02026C00707D070BDD4E918
:103ED000012130469047206A401C20626D1EF6D5B5
:103EE00070BD70B5044685690078C00707D170BD04
:103EF000D4E9012120209047206A401C20626D1ED9
:103F0000F6D570BD09684A0501D540B27047C905AC
:103F1000FCD500B2704709684A0501D5C0B27047A8
:103F2000C905FCD580B270472DE9F0470D4699468A
:103F30009246044600F124080168880604D5E06929
:103F400021F01001216000E00120A84201DD471BA3
:103F500000E00027A1697A1902EB0900081AA061A4
:103F60002078C00602D42046FFF7A5FF002608E00F
:103F7000D4E901211AF806009047206A401C761CFB
:103F800020624E45F4DB2078C0060AD52046FFF7B4
:103F900092FF06E0D4E9012130209047206A401CBE
:103FA0002062381EA7F10107F4DC07E0D4E9012103
:103FB00018F805009047206A401C2062281EA5F1D1
:103FC0000105F3DC2046FFF78CFF2078000602D5C0
:103FD0000220BDE8F0870120FBE711680268006A53
:103FE000530501D508700AE0D30501D5088006E025
:103FF000130603D5C217C1E9000200E008600120E2
:104000007047000001694A1C02610878704700B5DA
:104010008FB0CDE901310021059105497944CDE901
:10402000031011466846FFF74DFE0FB000BD0000BB
:10403000E5FFFFFF0A6802F8010B0A60704710B540
:10404000436913B1AFF3008001E0FFF78BFD01205E
:1040500010BD127800F124010A7000224A7001227A
:10406000EDE711684FF0FF32E9E70000074B70B54C
:104070000D467B44FFF7CBFF0446284600F0C4FC06
:1040800010B14FF0FF3070BD204670BD89E4FFFFD6
:104090002DE9FF5F15468A460446DFF8AC80F844F8
:1040A0000027D8E900103E46CDE9001010E03AF8AC
:1040B00016106A4602A800F0ABFC411C07D021781C
:1040C000890603D5E269391891420DD80744761C58
:1040D0002078800602D5E069B84205DDAE42E6DB15
:1040E0003AF816000028E2D1A069C01BA061204662
:1040F000FFF7E1FED8E90010CDE90010002017E03D
:104100003AF818106A4602A800F082FCB0F1FF3FAE
:1041100081460BD000250DF1080B05E0D4E9012103
:104120001BF8050090476D1C4D45F7D308F10100C1
:10413000B0428046E4DB206A384420622046FFF724
:10414000D0FEBDE8FF9F00009E3500002DE9F04144
:104150008046D21D22F007020025D2E90002F5298F
:1041600015A614D0011E72F1000106DA0023D0EB6F
:10417000030063EB020211A608E0D8F800108B07D9
:1041800001D50FA602E0490701D50EA6012511466B
:10419000002408F1240704E000F04EF830323A55CC
:1041A000641C50EA0102F7D12B46324621464046B4
:1041B000BDE8F041FFF7B8BE000000002D00000090
:1041C0002B0000002000000030B4002100F1240486
:1041D00008E002F00705D208303542EA4372DB08F6
:1041E0006554491C52EA0305F3D10468002310A268
:1041F000250707D5A40600D421B1C46901230DA267
:10420000641EC46130BCFFF78FBE10B50446214662
:104210001068FFF780FE02462046BDE810400023EC
:10422000D2E7D21D22F00701D1E90023CCE700003C
:10423000000000003000000030B5B0F10A024FEA83
:10424000900E71F100034EEA817EB0EB0E0061EB3F
:1042500091014FEA101E4EEA017E10EB0E0041EB79
:1042600011114FEA102E4EEA016E10EB0E0041EBD9
:1042700011214FEA104E4EEA014E10EB0E0041EBB9
:104280001141401841F100014FEAD00040EA41706D
:104290004FEAD10110EB80054FEA810444EA9074A3
:1042A00044EB01046D1944EB0404521BA3414FF08D
:1042B000000348BF0A3200D530BD401C41F1000167
:1042C00030BD70472DE9FF4F0C461E464FF0FF37BB
:1042D0008BB0D2E90001DDF860800A908A46C1F314
:1042E0000A5505B93D46002108464FF00000BAF1D5
:1042F000000F00F4400005DA00EB80004FF44001AD
:1043000001EA50004FEA9059B9F1010F00DDB946BA
:104310000A9850EA4A000ED044F61050A5F2FF3534
:1043200045432F14B8F1000F1ED07542291E1EDD23
:10433000C9F100021CE0B8F1010F4FF0000001D0FC
:10434000302103E0F24305E02154401CB042FBDB86
:1043500030460022002121540B99C1F80880C1E9A0
:1043600000200FB0BDE8F08FBD1B6D1CDEE74A4694
:1043700000DA694206A800F0DDFB06AB93E807000F
:1043800003AB83E8070050460A9900F093FC8DE8E0
:104390000700A0F500501F3800900398002D0ADD9B
:1043A00042F21F014A460844002303A903906846CD
:1043B00000F0FCFE09E0A0F500504A461F3800233B
:1043C00003A90390684600F006FF8DE8070000048B
:1043D000000C03D04FF0FF30410800E01046B8F168
:1043E000000F03D00022009215461EE0751E05D472
:1043F000FFF722FF303262556D1EF9D5B346012218
:10440000084302D000227F1C04E02078302801D12C
:1044100000227F1E002A099784D01DE0112D07DAA3
:10442000FFF70AFF303262556D1C50EA0102F5D1E8
:10443000084302D00098C8B10EE00021681E05E0D4
:10444000235C625C63542254401E491C8142F7DBAA
:10445000AB46A81B401E0990002004F80B000B98E7
:10446000099AC0F80880C0E9002B7AE711264FF0BE
:10447000000857E72DE9F04F88460446D21D22F088
:10448000070191B0D1E90001CDE90A0100F0DAFF9E
:1044900002460B98C00F01D02D2007E0206881074D
:1044A00001D52B2002E0202101EAC000032A099057
:1044B00001D0072A05DB03464146204600F0FAFA00
:1044C0000BE12078800601D5E06900E00620B8F114
:1044D000650F814606D0B8F1660F18D0B8F1670FA6
:1044E00070D131E00020B9F1110F009001DB1123F0
:1044F00001E009F101030AAA01A90CA8FFF7E2FEF5
:10450000DDE90C70002609F10105834647E0012032
:104510004B4600904FF000470AAA01A90CA8FFF7EC
:10452000D1FEDDE90DB00C995D46002610B909F108
:1045300001000D18B9EB050003D4C0F1FF3609F1F5
:104540000105A5EB09002BE0B9F1010F01DA4FF0ED
:1045500001090020B9F1110F0090484601DD112337
:1045600000E003460AAA01A90CA8FFF7ABFEDDE9AB
:104570000C704D4600268346207800070AD4AB45D0
:1045800000DA5D4601A8012D04DD411911F8011C76
:10459000302907D04F4502DA17F1040F04DA012061
:1045A00082460FE06D1EEEE7002F02DCED1B3E445D
:1045B00003E0781CA84200DD7D1CB81B00F1010A55
:1045C0004FF000472078000703D4AA4501DB4FF0E5
:1045D000FF3A0021B7F1004F0DF143088DF8431069
:1045E00024D002202B23002F01DA7F422D230A2121
:1045F000021EA0F1010000DC5FB197FBF1FC97FB0C
:10460000F1F201FB1C7C17460CF1300C08F801CDCF
:10461000EEE7A8F1010003702188090501D54521C5
:1046200000E06521A0F1010800F8011C09980FA91C
:10463000A1EB0807FF1D00B10120411901EBEA7051
:10464000A1693844081A401EA0612078C00602D42F
:104650002046FFF730FC099828B1D4E901219047A2
:10466000206A401C20622078C00622D52046FFF731
:1046700022FC1EE0002E04DBB34502DD01A8805DB4
:1046800000E03020D4E901219047206A401C2062DC
:10469000761CAAF101005FEA000A0AD100F006FACE
:1046A000C0680168405CD4E901219047206A401C41
:1046B0002062281EA5F10105DCDC07E0D4E9012118
:1046C00018F8010B9047206A401C2062381EA7F1A1
:1046D0000107F3DC2046FFF704FC032011B041E69C
:1046E0002DE9F04F04460D46D21D22F0070089B097
:1046F000D0E900974846394600F0A4FE0246F80F7C
:1047000001D02D2307E02068810701D52B2302E08B
:10471000202101EAC0038DF820300BB1012000E018
:104720000020032A824601D0072A04DB29462046BE
:1047300000F0C0F93FE12078800601D40D2500E0AB
:10474000E569C7F30A560D2D49DA00214FEA175BD8
:1047500008464FF00000002F00F4400007DA00EB9D
:1047600080004FF4400100EBD07001EA6000811539
:10477000012901DD4FF0FF3100224FEA850CBCF129
:10478000180F06D31346ACF118004FF08052C24008
:1047900003E04FF4801323FA0CF30CF10C0CBCF182
:1047A000200F04D3ACF1200C09FA0CF001E007FA59
:1047B0000CF000294FF0004801DD18B90FE00ED1D0
:1047C00040450CD319EB02095F4121B9404502D1A4
:1047D0009F4329EA0209BBEB175F00D0761C2088B3
:1047E000000502D57B48784402E07A4878441938BD
:1047F00008AA302302F80A30037C0AF10101002ED6
:104800000AF1020A53546A4602DC4FF0300101E01B
:104810004FF031014FF001088DF8001002D0A6F2E0
:10482000FF3603E059EA470100D06B4E002D02DC51
:104830002178090704D54FF002082E218DF80110C8
:10484000C44600210BE0C7F303433F01C35C491C8E
:104850006D1E02F80830052908F1010801DA002D63
:10486000F1DC00210CE000EB1973491C1B786D1E74
:10487000082902F808304FEA091908F1010801DA9D
:10488000002DF0DC21688B0602D516E0A8F10108A6
:10489000E04505DD02EB080313F8013C302BF5D0B1
:1048A000B8F1000F09DD02EB080313F8013C2E2BD1
:1048B00003D1090701D4A8F10108002D05DD3E212F
:1048C00002F808106D1E08F10108407C002E02F865
:1048D000080008F1010804DA2D20764202F80800E9
:1048E00002E02B2002F808000A214FF47A70864279
:1048F00008F101080BDB96FBF0F3303302F80830C7
:1049000096FBF0F308F1010800FB136601E0642E4A
:104910000CDB642096FBF0F3303302F8083096FB92
:10492000F0F308F1010800FB136601E00A2E06DB34
:1049300096FBF1F0303002F8080008F1010896FB10
:10494000F1F001FB1060303002F80800A16908F1B5
:10495000010808EB050202EB0A00081AA0612078A2
:10496000C00602D42046FFF7A6FA216A08AE01EB82
:104970000A00206204E0D4E9012116F8010B9047F7
:10498000BAF1010AF7D22078C00602D52046FFF717
:1049900092FA6E4609E016F8010B3E280FD0D4E9D2
:1049A00001219047206A401C2062B8F10108F2D230
:1049B0002046FFF796FA09B00320BDE8F08F206A81
:1049C0002844206203E0D4E90121302090476D1E85
:1049D000EBD3F8E7712E000002FCFFFF10B543692E
:1049E00013B1AFF3008001E0FFF752FB012010BDCF
:1049F000128800F1240182840022C2840122EDE7A2
:104A000011684FF0FF32E9E7007B00F0800070474B
:104A100070B516460C46054600F040F8036893F85A
:104A20000101012806D0FF2C0FD8185D68B10120C4
:104A30002C7070BDD3F807013246214603F20713EC
:104A400003442846BDE8704018474FF0FF3070BD62
:104A5000754600F0EBF8AE4605006946534620F077
:104A60000700854618B020B5FDF7E0FDBDE8204001
:104A70004FF000064FF000074FF000084FF0000B1A
:104A800021F00701AC46ACE8C009ACE8C009ACE8CD
:104A9000C009ACE8C0098D467047000010B500F0B1
:104AA00005F8001D10BD00BF010A00000048704756
:104AB000D40700202DE9F0411F4604460326016873
:104AC000072A01F4006004DB08B116A505E016A56D
:104AD00003E008B115A500E015A521F01000206045
:104AE000A069C01EA0610FB1401EA0612046FFF763
:104AF000E2F94FB1D4E9012138469047206A401CC1
:104B00002062C01C206206E0206AFAE7D4E9012195
:104B100015F8010B9047761EF8D22046FFF7E1F911
:104B2000BDE8F0814E414E006E616E00494E460078
:104B3000696E66002DE9F047814616468AB0354811
:104B400078440DC88DE80D0032487844801C03ACD1
:104B50000DC884E80D0041F69B300844372190FBD6
:104B6000F1F290FBF1F5A5F1800501FB12041B3C6D
:104B700002D56442012000E00020DFF898A08046C2
:104B80000027FA44AAF1BE0A0EE0E0070AD0324636
:104B9000684607EB470101230AEB810100F01BFB8C
:104BA0008DE8070064107F1C002CEED1194F7F4464
:104BB000AE3F19E0E80715D007EB04100DF1180A15
:104BC00090E80E008AE80E00C068F04201D1981902
:104BD00008903246012306A903A800F0FCFA03ABB3
:104BE00083E807006D10641C002DE3D14FF0010332
:104BF00032466946B8F1000F03A802D000F0D6FA99
:104C000001E000F0E8FAC9E90001C9F808200AB09B
:104C1000BDE8F087A82B000010B50446AFF3008074
:104C20002046BDE81040FBF71EBB0000004870475F
:104C3000B40700204FF0013C50F8042B51F8043B1E
:104C40009A4221D1A2EB0C03934313EACC1317D160
:104C500050F8042B51F8043B9A4215D1A2EB0C03F7
:104C6000934313EACC130BD150F8042B51F8043BB7
:104C70009A4209D1A2EB0C03934313EACC13DBD085
:104C80004FF00000704700BFD01A01BAB1FA81F1AD
:104C900001F0180122FA01F0CB40C1F12001DBB292
:104CA000C0B2C01A2CFA01F3D11A914311EAC31110
:104CB000E6D170475FEA400C08BF91F0000F4FEA61
:104CC0008C234FEAC12243EA51514FEA1C5018BFCE
:104CD00000F5F0404FEA300018BF41F000415FEAB4
:104CE0006C5C00F02980BCF1FF3F08BF40F08040C1
:104CF0007047130C06BF12044FF0100C4FF0000C5D
:104D0000130E04BF12020CF1080C130F04BF1201A2
:104D10000CF1040C930F04BF92000CF1020CD30FA2
:104D200004BF52000CF1010C11464FF00002A0F13B
:104D30001F00A0EB0C00704711F0004F08BF704738
:104D400031F000413FF4D5AF0B0C06BF09044FF022
:104D5000100C4FF0000C0B0E04BF09020CF1080CF4
:104D60000B0F04BF09010CF1040C8B0F04BF890069
:104D70000CF1020CCB0F04BF49000CF1010CCCF17B
:104D80002003A0EB0C0022FA03F302FA0CF241EA32
:104D9000030100F10100704720F07F4C80EA03001E
:104DA00023F07F47ACEB070303F57C5300F0004092
:104DB00003F1FF032DE980494FEA154B09B44FEA8F
:104DC000144325EA0B4E24EA03480FF2042606EBAF
:104DD000132749083E785FEA320203FB0667C7F5EE
:104DE000000707FB06F64FEA54374FEAD64606F1AE
:104DF000020607FB066CCCF1005C4FEA1C472CEA6C
:104E0000074C07FB06F40CFB06F504EB15464FEACE
:104E1000961634BF00204FF000404FEAD13706FB12
:104E200007FC4FEA1C4C0CFB0BF7D21B03FB0CF7E7
:104E300061EB07010CFB0EF7B0EB074072EB17427A
:104E40000CFB08F734BFA2EB0742B2EB074261EB61
:104E500017414FEA0C444FEA910706FB07FC4FEA63
:104E60001C4C0CFB0BF7B0EBC74072EB573203FB4B
:104E70000CF734BFA2EBC742B2EBC74261EB57312C
:104E80000CFB0EF7B0EBC70072EB57720CFB08F788
:104E900034BFA2EBC702B2EBC70261EB5771039FAD
:104EA0004FEA816141EA921104EBCC044FEAD13719
:104EB0004FEA826206FB07FC42EA90124FEA8060EA
:104EC0004FEA1C4C0CFB0BF7D21B03FB0CF761EBFE
:104ED00007010CFB0EF7B0EB074072EB17420CFB1F
:104EE00008F734BFA2EB0742B2EB074261EB174170
:104EF0004FEA8C554FEA910704EB9C2406FB07FC14
:104F00004FEA1C4C0CFB0BF7B0EBC74072EB57326F
:104F100003FB0CF734BFA2EBC742B2EBC74261EB15
:104F200057310CFB0EF7B0EBC70072EB57720CFB5E
:104F300008F734BFA2EBC702B2EBC70261EB5771AF
:104F400015EB4C254FEA816141EA92114FEA8262EA
:104F50004FEAD13742EA901206FB07FC44F1000405
:104F60004FEA80604FEA1C4C0CFB0BF7D21B03FB93
:104F70000CF761EB07010CFB0EF7B0EB074072EB8F
:104F800017420CFB08F734BFA2EB0742B2EB074213
:104F900061EB174115EB1C154FEA813141EA924153
:104FA0004FEA823242EA90424FEA80304FEA0C7672
:104FB00044F1000448EA03434EEA0B484FF0000E68
:104FC000B2EB080C71EB030724BF624639464EEB87
:104FD0000E0E4FF0000B0018524149414BEB0B0BEA
:104FE000B2EB080C71EB03077BF1000B24BF6246A8
:104FF00039464EEB0E0E4FF0000B0018524149415E
:105000004BEB0B0BB2EB080C71EB03077BF1000BC6
:1050100024BF624639464EEB0E0E51EA020718BF16
:1050200046F0010616EB0E7655F1000254F1000130
:1050300003D5BDE88901BDE80088BDE88901BDE868
:105040000048B619524141EB0101A3F10103704739
:1050500080807F7E7D7C7B7A7978777676757473B5
:10506000727171706F6E6E6D6C6C6B6A6A69686874
:10507000676666656464636362616160605F5F5E0A
:105080005E5D5D5C5C5B5B5A5A5959585857575680
:1050900056555555545453535252525151505050E5
:1050A0004F4F4F4E4E4D4D4D4C4C4C4B4B4B4A4A37
:1050B0004A4949494848484747474746464645457B
:1050C00045444444444343434342424242414141B4
:1050D000002B9C4630D477002BD01CB54FEA370705
:1050E00003B44FF010004FF01001BAF1000F06D0DA
:1050F000BCF1000FDCBF40F0080040F008014FF0A9
:1051000000000FBCBDE810400BF1010BBBF1010F1B
:1051100008BF5FEA170722BF12F1010211F1010176
:105120004FF0004143F1000300F0004043EA00006B
:105130007047F9D35708D0E746EA064613F1400F07
:105140004FEA16461FDD13F1200FDFBF16430A4654
:10515000002120335B42BED0C3F1200746EA064659
:1051600002FA07F74FEA164646EA0706C3F1200798
:1051700022FA03F201FA07F721FA03F14FF00003D4
:1051800042EA0702A7E746EA020646EA06464FEA6F
:10519000164646EA0106BCBF46EA0646360C4FF004
:1051A00000034FF000024FF0000194E72DE9804C1E
:1051B0009A46934670B491E8380007C831EA400C2B
:1051C00048BF34EA430C03D5FFF7E6FDFFF780FF45
:1051D000F0BCBDE8008C2DE9804C9A46934670B433
:1051E00091E8380007C810F0804F08BF13F0804FD7
:1051F00003D100F005F8FFF76BFFF0BCBDE8008CB1
:1052000020F07F4780EA030023F07F4C07EB0C037C
:10521000A3F57C5300F00040A3F1FE0392F0000FD1
:1052200000F0B38095F0000F00F077802DE9014980
:105230004FEA11404FEA144621EA004800FB06FC01
:1052400024EA064708FB06F607FB08F800FB07F709
:1052500018EB06484CEB164C4FEA124B18EB07487C
:105260004FEA15464CEB174022EA0B4E0BFB06FCAF
:1052700025EA06470EFB06F607FB0EFE0BFB07F7BB
:105280001EEB064E4CEB164C4FF000061EEB074E85
:105290004CEB174B18EB0B0840F1000018EB0E0B12
:1052A00058EB000840F100008F1A4FF000013CBF9E
:1052B000C943661B14BFB5EB040C00213CBFC943B6
:1052C000F61B4FEA17444EEA8E0E27EA04454FEAD2
:1052D0001C4704FB07622CEA074C05FB07F70CFB95
:1052E00005F604FB0CFC16EB074642EB174216EBE7
:1052F0000C4642EB1C421BEB060658EB02024141F6
:1053000046EA9E0601D5BDE80189B619524141EB36
:105310000101A3F10103BDE801894FEA14454FEAF9
:10532000114724EA054621EA074C05FB07F406FB72
:1053300007F70CFB06F105FB0CFC11EB074144EBF6
:1053400017444FEA124711EB0C4144EB1C4422EA8C
:10535000074C05FB07F206FB07F70CFB06F605FBFF
:105360000CFC16EB074642EB174216EB0C4642EBE1
:105370001C456A1854F1000148BF7047B6195241E4
:1053800041EB0101A3F10103704795F0000F37D005
:105390004FEA11424FEA144721EA024624EA074C39
:1053A00002FB07F106FB07F70CFB06F402FB0CFC03
:1053B00014EB074441EB17414FEA154714EB0C443B
:1053C00041EB1C4125EA074C02FB07F506FB07F7FA
:1053D0000CFB06F602FB0CFC16EB074645EB1745EB
:1053E00016EB0C4645EB1C42121951F1000148BF67
:1053F0007047B619524141EB0101A3F10103704717
:105400004FEA14454FEA114724EA054621EA074CC2
:1054100005FB07F106FB07F70CFB06F24FF0000651
:1054200005FB0CFC12EB074241EB174112EB0C425F
:1054300051EB1C4148BF7047921841EB0101A3F1A9
:1054400001037047490050EAC12018BF04204A0DEB
:1054500018BF40F0010040F2FF72B2EB515F08BF8D
:1054600040F00200012808BF0520704730380A28A4
:1054700001D20120704700207047000010B50029BC
:105480000AD00878002807D005487844FFF7D2FBF7
:10549000002801D0002010BD0248784410BD000053
:1054A0009A2200009222000010B500290AD0087844
:1054B000002807D005487844FFF7BCFB002801D03E
:1054C000002010BD0248784410BD00008A22000070
:1054D0008222000010B591EA030F48BF83F0004319
:1054E00000F1CA83841A71EB030C05D2121943EB45
:1054F0000C03001B61EB0C01DFF824E14FEA1154AF
:10550000A4EB135C1EEA430F18BF9EEA445F73D0FE
:1055100023EA0E03DCF1200E21EA045143F4801348
:1055200032D322FA0CFE10EB0E0023FA0CFE41EBF4
:105530000E01CCF1200E03FA0EFE10EB0E0051F11D
:105540000001B1F5801FCCF1200E32D201EB0451E5
:1055500012FA0EF2BDE8104058BF7047401C38BF29
:105560005FEA420218BF7047002814BF20F0010014
:1055700041F100014FEA410313F5001F38BF7047A6
:10558000A1F1C04100F028BB012A43EB0302ACF1BA
:10559000200CDCF11F0E32BF4FF0000E23FA0CF38B
:1055A00010EB030041EB0451B4EB115FD0D0A1EB41
:1055B000045101F5801149085FEA300001EB045104
:1055C0000ED350F1000038BF12FA0EFE08D1BDE82C
:1055D0001040C9E7401C38BF5FEA4202CAD1C3E7A6
:1055E000BDE810404FEA410313F5001F38BF704774
:1055F000A1F1C04100F0F0BA9EEA445F08D011EA80
:105600005E0FBDE8104004BF01F00041002070476C
:10561000BDE8104070B500F091FA00BF64FBBE3EDB
:105620000000E0FF491058BFC1F140415B1058BF76
:10563000C3F140438B42EFF3008070472DE9C04136
:1056400030B4DFF8A0C23CEA111418BF3CEA1314CE
:1056500000F0EC8081EA03051CEA111444EAD574D9
:1056600018BF1CEA131500F0C780A4EB05044FF027
:10567000004545EAC12145EAC32341EA505143EAC6
:10568000525304F17F74994204F500344FEAC0206C
:105690004FEAC22208BF904200F09C804FEA136597
:1056A0000FF24016765D4FEA134506FB05F7C7F18A
:1056B000807706FB07F74FEAD737A7FB03687642E8
:1056C000C8F58038A7FB06CE38BFA8F1010807FB54
:1056D00008E64FF0000EA6FB028CE6FB03CEDCF1E1
:1056E000000CCEF1004E38BFAEF1010EA6FB0C58F7
:1056F0004FF000074FF00005E6FB0E87A1FB08C640
:10570000A0FB07CE16EB0E0645F10005E1FB076591
:1057100015F1E04E7EBFA4F580345FEA46066D4188
:1057200016F1800745F100054FEA17274FEA066694
:1057300047EA0567A6F1DE46B6F1805F4FEA152518
:105740001FD9384624F0010C05EBC471BCF1FE6F83
:1057500001EB0C1102D8F0BCBDE8008124425CBF13
:1057600001F5801E9EEAC47F02D4F0BCBDE8008132
:10577000244238D4F0BCA1F1C041BDE8004100F0A2
:105780002BBA4FEAD22242EA43524FEAD323A7FB75
:1057900002864FEAD02040EA415007FB03661EEA2A
:1057A0000E0F4FEAD12105FB026658BFA6EB00564B
:1057B000B6EB00564FEA520E4EEAC37E18EB0E0EC1
:1057C00056EB530EBDD518EB02085E417F1C55F118
:1057D0000005B6E74FF480154FF000074FF00006C4
:1057E0004FF00008ADE7F0BC4FF0000001F1C04100
:1057F00001F00041BDE8008111EA0C1F0CEA13150D
:1058000000D00CE013EA0C1F00F025804FF00000E0
:10581000F0BC81EA030101F00041BDE80081F0BC69
:10582000BDE8004181EA030100F0D6B9F0BCBDE853
:10583000004170B500F082F9097EFC3E00F007B827
:1058400081EA03014FF0000001F00041704781EA56
:10585000030100F0C1B9F0BCBDE800414FF0000009
:1058600021497047FFFDFBF9F7F5F4F2F0EEEDEB9F
:10587000E9E8E6E4E3E1E0DEDDDBDAD8D7D5D4D34E
:10588000D1D0CFCDCCCBCAC8C7C6C5C4C2C1C0BF9A
:10589000BEBDBCBBBAB9B8B7B6B5B4B3B2B1B0AFA0
:1058A000AEADACABAAA9A8A8A7A6A5A4A3A3A2A184
:1058B000A09F9F9E9D9C9C9B9A999998979796953F
:1058C00095949393929191908F8F8E8E8D8C8C8BDB
:1058D0008B8A898988888787868585848483838263
:1058E000828181800000FF070000F87F4FEA4103BA
:1058F0004FEA5353A3F58063D3F11E03C8BFD3F11E
:10590000210C0CDD4FF0004242EAC12242EA505223
:1059100032FA03FC8CEAE17CACEBE1707047102BAF
:10592000C4BF0020704703F5787CBCF1FF3F04D072
:105930006FF0004282EA2100704770B500F0FEF877
:105940004992248000207047F2E7B0FA80F310FA01
:1059500003F10AD0C3F11D0303F580634FEA415000
:105960004FEA035202EBD12170474FF0000070471D
:1059700051EA030C17D41CF5801F58BFBCF5801FDB
:1059800000F10680994218BF704708BF90427047E7
:1059900007D711F5801F58BF13F5801F19D49942FE
:1059A0007047894270471CF5801F08D5BCF5801FE1
:1059B000F7D58B4218BF704708BF824270474FF43B
:1059C000001C1CEB410F38BF1CEB430F01D28B4274
:1059D000704770B500F0B2F8922449004FF00051C2
:1059E0004FF08053FFF71EBEDFF848C170B51CEAC8
:1059F000111E1EBF1CEA13159EEA0C0F95EA0C0F30
:105A000000F06F8081EA030423EA4C134EEAD47E4F
:105A100021EA4C1141F4801143F48013AE44A1FB00
:105A2000024CA0FB0365AEF17F7E361955EB0C05E9
:105A3000A1FB034C4CF10003A0FB021C16EB0C066F
:105A4000654153F10003094218BF46F0010613F403
:105A5000007F0BD14FEA03314FEA0530340341EAAE
:105A6000155140EA16506FF003020AE04FEAC321D5
:105A70004FEAC520F40241EA555140EA56506FF012
:105A8000020202EB2E4201EB025585EACE710AD0EA
:105A90005FEA440C18BF24F0004450F1000041F1CB
:105AA000000120EAD47040F2FE7C624500D270BD55
:105AB000A84214BF4FF080444FF04044002E08BF6E
:105AC0000024BEF1806FA8BFA1F1C041BDE87040C5
:105AD00080F282804FF0000001F1C04101F00041EE
