:030000000200DE1D
:0C00DE00787FE4F6D8FD75810A0200FA74
:100076002020204C434420546573742020004142C4
:0F008600434445464748494A4B4C4D4E4F500066
:0F000300C2B5C2B48F807F027E00120012D2B449
:10001200E4FDFCC3ED9FEC9E5015E4FBFA0BBB0024
:0F002200010AEB64704A70F50DBD00010C80E41B
:0100310022AC
:0800EA00C2B6120003C2B422E9
:0800F200D2B6120003C2B422D1
:100095008F08A905EF7007E92480FF1200EAE5083B
:0C00A50064017007E924C0FF1200EA2289
:100032008B088A09890AAB08AA09A90A1200B160C9
:1000420013050AE50A7002050914F91200B1FF123C
:0500520000F280E22233
:1000CA007F381200EA7F0C1200EA7F061200EA7FEC
:0400DA00010200EA35
:050102007F0C0200EA81
:050107007F080200EA80
:10005700E4FDFF1200957BFF7A007976120032E407
:0F006700FD7F011200957BFF7A00798402003241
:0800FA001200CA12005780FE3B
:1000B100BB010689828A83E0225002E722BBFE024D
:0900C100E32289828A83E4932280
:00000001FF
