:030000000204F8FF
:0C04F800787FE4F6D8FD7581200203F443
:1004D90068756D69646974793A000000000000006C
:0C04E9001204F5D2A31204F5C2A3D2A2A3
:0304F500000022E2
:1004A7007580FFC2B6D2B5D2B4AF80C2B4EF20E731
:0104B700F64E
:0104B8002221
:1004B900AE071204A7C2B6C2B58E80D2B4C2B422A6
:1004C900AE071204A7D2B6C2B58E80D2B4C2B42286
:100462008B1B8A1C891DED600343074043078012E2
:1004720004B9AB1BAA1CA91D12035E6013051DE57E
:100482001D7002051C14F912035EFF1204C980E2FA
:010492002247
:100493007F381204B97F0C1204B97F061204B97FA6
:0404A300010204B995
:10038500E4FFFEC2A4C2A3D2A21204E9D2A31204BE
:10039500F5C2A3A20092A21204E9FDEDC39408746C
:1003A5008094805017D2A31204F5C2A31204F5EF6E
:1003B50025E0FFA2A2E4334FFF0D80DFE4FDEDC38E
:1003C500940874809480501DA2A2E433FCA805080B
:1003D5008002C333D8FC4206D2A31204F5C2A3128D
:0E03E50004F50D80D9D2A4EFB50601227F00E9
:0103F30022E7
:0C050400EF64014E7003D2B722C2B72290
:1003F400E4F508F509F50A780B7C00FD7BFF7A0427
:1004040079D9FE7F10120338120493C200120385B7
:100414008F08AC08E41201B3E4FBFA79FA784312CA
:100424000003E4FBFA797F784312010C1201E78E92
:10043400098F0AC3E50A9437E50994005006E4FFDE
:10044400FE1205047B007A00790BE4FDFF120462BE
:0E0454007B007A0079090DE4FF12046280AD8E
:10000300EC4D6011E8497017ED33EC3304600DE4F7
:10001300FCFFFEFD22E933E8330470F802025312B9
:10002300021E58046009E4CC2481500628500902BA
:10003300025D28400302025AC0E0EB4A7044B980D3
:1000430006D0E0FB020249EF4E701CBD8008EBFFB7
:10005300EAFEE9FD80EBE98DF0A4FEE5F00200EC99
:10006300E9CDF9EAFEEBFFEF89F0A4FCE5F0CE89D8
:10007300F0A42EFFE435F0CD89F0A42DFEE435F095
:100083008067EF4E7005BD80D780C3EF8BF0A4ACC3
:10009300F0EE8BF0A42CFCE435F0F8EF8AF0A42CFE
:1000A300E5F038FCE433CB8DF0A42CFCE5F03BF811
:1000B300EE8AF0A42CFCE5F038F8E433CF89F0A401
:1000C3002CFCE5F038CF3400CE89F0A42FFFE5F007
:1000D3003EFEE433C98DF0A42EFEE5F039CD8AF05F
:1000E300A42FFFE5F03EFEE43DFD33D0E0FB5007D7
:1000F3000BBB000F02025DEC2CFCEF33FFEE33FE73
:06010300ED33FD020235A0
:1001090002025DEC5D046005E859047003020253C4
:1001190012021E580460F6EC4860F2EC7004FDFE11
:10012900FF22C860DB2481C85009C39860025006C9
:1001390002025A9850CAF582E9294B4A7005AB82E6
:1001490002024975F0007C1A7880C3EF9BEE9AEDA4
:1001590099400DC3EF9BFFEE9AFEED99FDE842F041
:10016900DC23ACF0D0E0FFD0E0FED0E0FDAB822094
:10017900E7101BEB60BAEC2CFCEF33FFEE33FEED1E
:1001890033FD020235E803F830E705C0F075F000E9
:10019900EF2FFFEE33FEED33FD40B830E7C280AA02
:1001A90075F020800E75F010800575F0087D007ED1
:1001B900007F003392D530D503120377EC3340101A
:1001C900EF33FFEE33FEED33FDEC33FCD5F0ED22DA
:0E01D900E5F0247EA2D513CC92E7CDCEFF2216
:1001E700EDD2E7CD33EC3392D524814006E4FFFE10
:1001F700FDFC22FCE4CFCECDCC24E0501174FF806F
:10020700EDC3CC13CCCD13CDCE13CECF13CF04700B
:07021700F030D5DE02037791
:10021E00E9D2E7C933E833F892D5EDD2E7CD33EC26
:07022E0033FC5002B2D5229F
:10023500EC30E7100FBF000C0EBE00080DBD00042A
:100245000BEB6014A2D5EB13FCED92E7FD2274FFD6
:10025500FCFDFEFF22E480F8A2D574FF13FC7D802F
:03026500E480EF43
:10026800E709F608DFFA8046E709F208DFFA803E78
:1002780088828C83E709F0A3DFFA8032E309F60865
:10028800DFFA8078E309F208DFFA807088828C83CD
:10029800E309F0A3DFFA806489828A83E0A3F60881
:1002A800DFFA805889828A83E0A3F208DFFA804C5B
:1002B80080D280FA80C680D4806980F28033801032
:1002C80080A680EA809A80A880DA80E280CA80339B
:1002D80089828A83ECFAE493A3C8C582C8CCC58313
:1002E800CCF0A3C8C582C8CCC583CCDFE9DEE780E3
:1002F8000D89828A83E493A3F608DFF9ECFAA9F062
:10030800EDFB2289828A83ECFAE0A3C8C582C8CCB7
:10031800C583CCF0A3C8C582C8CCC583CCDFEADED0
:10032800E880DB89828A83E493A3F208DFF980CC32
:1003380088F0EF60010E4E60C388F0ED2402B4042B
:100348000050B9F582EB2402B4040050AF232345D2
:0603580082239002B8733D
:10035E00BB010689828A83E0225002E722BBFE029D
:09036E00E32289828A83E49322D0
:0E037700C3E49FFFE49EFEE49DFDE49CFC2297
:00000001FF
