:03000000020003F8
:0C000300787FE4F6D8FD75812702004AE2
:1002A0003F065B4F666D7D077F6F777C395E7971A6
:10028400070F81838587898B8D0708808284868800
:0B0294008A8C07164751132004052137
:10017500E4F51DD2A512023A120265E518C4540F22
:100185009002A093F51EE518540F93F51F752040B6
:10019500E517C4540F93F521E517540F93F5227510
:1001A5002340E516C4540F93F524E516540F93F533
:1001B500257B007A00791E7D0112008F1202C8800E
:0101C500B782
:0C02B0007F057E347DC3DDFEDEFCDFFA3E
:0102BC00221F
:0802D2007F027E0FDEFEDFFC5F
:0102DA002201
:0B02BD00EF1FAC0670011E4C70F62213
:10008F00E4F526ED14F527F526C3E52694087480CC
:10009F0094805074E526B40800504D9000B1F828B4
:1000AF0028730200C90200CD0200D10200D5020060
:1000BF00D90200E10200E90200F1D2A4800ED2A41D
:1000CF008012D2A48016D2A4801AC2A4D2A3D2A224
:1000DF008016C2A4D2A3C2A2800EC2A4C2A3D2A26F
:1000EF008006C2A4C2A3C2A2C3E5269527FFE4944B
:1000FF00008F82F58312020DF5807F647E0012025D
:08010F00BDE4F58005268081A6
:0101170022C5
:0A02C800D2951202B0C2950202B0F6
:1001C600E4FEC2B500C2B600D2B500EEC394087410
:1001D6008094805011EF1392B4EFC313FFD2B60090
:1001E600C2B6000E80E5E4FEEEC3940874809480E7
:1001F6005011ED1392B4EDC313FDD2B600C2B60092
:060206000E80E5C2B50008
:01020C0022CF
:10011800E4FEF9FDC2B500C2B600D2B500EEC39444
:1001280008748094805011EF1392B4EFC313FFD278
:10013800B600C2B6000E80E5E4FEEEC394087480F3
:100148009480501AA2B4E433F9C43333335480FF93
:10015800EDC3134FFDD2B600C2B6000E80DCC2B5A7
:0C01680000D2B600C2B400D2B400AF0553
:010174002268
:10023A00E4FCFD7F8E1201C6ECC39407748094809F
:10024A00501274082CF8E6FF74162CF8E6FD120119
:0B025A00C60C80E47D807F8E0201C690
:10026500E4FCECC39407748094805012740F2CF84E
:0E027500E6FF12011874162CF8A6070C80E4A0
:010283002258
:10000F00020175E493A3F8E493A34003F68001F291
:10001F0008DFF48029E493A3F85407240CC8C333F2
:10002F00C4540F4420C8834004F456800146F6DFC1
:10003F00E4800B0102040810204080900284E47ECB
:10004F00019360BCA3FF543F30E509541FFEE493B6
:10005F00A360010ECF54C025E060A840B8E493A37D
:10006F00FAE493A3F8E493A3C8C582C8CAC583CAA8
:10007F00F0A3C8C582C8CAC583CADFE9DEE780BE60
:01029F00005E
:10020D00BB010CE58229F582E5833AF583E02250A6
:10021D0006E92582F8E622BBFE06E92582F8E222F0
:0D022D00E58229F582E5833AF583E493220A
:00000001FF
