:03000000020003F8
:0C000300787FE4F6D8FD75810802004A01
:03016F0001080084
:05016A0012008F80FB74
:10010800E4FFC29620A0010F20A1027F0220A202D4
:100118007F0320A3027F04D296C29520A0027F0508
:1001280020A1027F0620A2027F0720A3027F08D217
:1001380095C2A520A0027F0920A1027F0A20A20261
:100148007F0B20A3027F0CD2A5C2A420A0027F0DA2
:1001580020A1027F0E20A2027F0F20A3027F10D2CF
:01016800A4F2
:010169002273
:10008F0075A0FF7590FF1201088F08E50814B410D2
:10009F000050659000B075F003A4C58325F0C583AB
:1000AF00730200E00200E30200E60200FB0200E937
:1000BF000200EC0200EF0200FB0200F20200F50268
:1000CF0000F80200FB0200FE02010102010402001F
:1000DF00FBC29122C29222C29322C29122C29222C9
:1000EF00C29322C29122C29222C29322C29422C2EE
:0900FF009122C29222C293222236
:10000F0002016AE493A3F8E493A34003F68001F29C
:10001F0008DFF48029E493A3F85407240CC8C333F2
:10002F00C4540F4420C8834004F456800146F6DFC1
:10003F00E4800B010204081020408090016FE47EE1
:10004F00019360BCA3FF543F30E509541FFEE493B6
:10005F00A360010ECF54C025E060A840B8E493A37D
:10006F00FAE493A3F8E493A3C8C582C8CAC583CAA8
:10007F00F0A3C8C582C8CAC583CADFE9DEE780BE60
:01017200008C
:00000001FF
