:0300000002000EED
:0C000E00787FE4F6D8FD75810B020055E8
:08016C00020A00000208000075
:0E015E0012014C12010412011F1200DB80F589
:05013A00C28312013F29
:0C013F007F057E347DC3DDFEDEFCDFFAB0
:01014B002291
:10014C00758901758A33758CFED28CC28DD2A9D279
:02015C00AF22D0
:1001040020B00675080075090320B105E4F508F56B
:0B0114000920B20675080075090422DE
:03000B0002009A56
:10009A00C0E0C0D075D000C000758A33758CFE05EB
:1000AA000BE50B7002050AD39509E5086480F8E5AB
:1000BA000A6480985004D2A58002C2A5E50B642880
:1000CA00450A7006F50AF50BD2A5D000D0D0D0E0CB
:0100DA0032F3
:10011F00308404D2908002C290308504D291800244
:0B012F00C291308603D29222C29222BD
:1000DB00C280D281C282D28312013F12013F120130
:1000EB003FD280C281D28212013A12013FC280C23A
:0900FB0081C28212013A02013FA8
:10001A0002015EE493A3F8E493A34003F68001F29D
:10002A0008DFF48029E493A3F85407240CC8C333E7
:10003A00C4540F4420C8834004F456800146F6DFB6
:10004A00E4800B010204081020408090016CE47ED9
:10005A00019360BCA3FF543F30E509541FFEE493AB
:10006A00A360010ECF54C025E060A840B8E493A372
:10007A00FAE493A3F8E493A3C8C582C8CAC583CA9D
:10008A00F0A3C8C582C8CAC583CADFE9DEE780BE55
:01017400008A
:00000001FF
