:0300000002000EED
:0C000E00787FE4F6D8FD75810B020055E8
:08011500020A000002080000CC
:080003001200F61200DB80FB85
:0C0108007F057E347DC3DDFEDEFCDFFAE7
:0101140022C8
:1000F600758901758A33758CFED28CC28DD2A9D2D0
:02010600AF2226
:1000DB0020B00675080075090320B105E4F508F595
:0B00EB000920B2067508007509042208
:03000B0002009A56
:10009A00C0E0C0D075D000C000758A33758CFE05EB
:1000AA000BE50B7002050AD39509E5086480F8E5AB
:1000BA000A6480985004D2A58002C2A5E50B642880
:1000CA00450A7006F50AF50BD2A5D000D0D0D0E0CB
:0100DA0032F3
:10001A00020003E493A3F8E493A34003F68001F2F9
:10002A0008DFF48029E493A3F85407240CC8C333E7
:10003A00C4540F4420C8834004F456800146F6DFB6
:10004A00E4800B0102040810204080900115E47E30
:10005A00019360BCA3FF543F30E509541FFEE493AB
:10006A00A360010ECF54C025E060A840B8E493A372
:10007A00FAE493A3F8E493A3C8C582C8CAC583CA9D
:10008A00F0A3C8C582C8CAC583CADFE9DEE780BE55
:01011D0000E1
:00000001FF
