:0300000002008972
:0C008900787FE4F6D8FD75810702009E28
:10006C003F065B4F666D7D077F6F777C395E7971DC
:07009E00D2A512000380FB54
:0C007C007F057E347DC3DDFEDEFCDFFA74
:010088002255
:080095007F027E0FDEFEDFFC9E
:01009D002240
:10000300E4FDEDB40800504F900012F82828730265
:10001300005202004E02004602004202003A020071
:100023003602002E02002AC2A28002D2A2C2A3C2BA
:10003300A48026C2A28002D2A2D2A3C2A4801AC2E2
:10004300A28002D2A2C2A3D2A4800EC2A28002D2F4
:10005300A2D2A3D2A480027DFFED90006C93F58021
:090063000D120095E4F58080996E
:00000001FF
