:030000000202E316
:0C02E300787FE4F6D8FD75811602032A2E
:050530006469733A004C
:0A04F5000211FFFF0413BF80000096
:0604BA00C2B58F80D2B430
:0904C000007F027EC7DEFEDFFCB6
:0104C9002210
:0A050000C2B61204BAC2B40204C06D
:0A050A00D2B61204BAC2B40204C053
:10045E00AE07EEFB7A0064017004ED148009EB64C4
:0E046E00024A7009ED243F4480FF120500226F
:100495007F381205007F0C1205007F061205007FCC
:0404A500010205004B
:06043B008B088A09890A02
:1004410012045EE4FDAB08AA09A90A8D8275830036
:0C045100120241FF600612050A0D80E94E
:01045D00227C
:080414008E0D8F0E8C0F8D1070
:10041C007F017E00E4FBEBC39510E50F6480F8745C
:0E042C008098500AAC0DAD0E12026E0B80E8E7
:01043A00229F
:0403D2008A0A8B0BFD
:1003D60012045EAA0CEAFF7E00D394007480948017
:1003E600402BEF24FFFDEE34FFFC7F0A120414AC11
:1003F6000AAD0BCFCDCFCECCCE1202807C007D0ACB
:0D040600120280ED2430FF12050A1A80C892
:0104130022C6
:1004A900438901758CFF758AF6D28C308DFDC28D1A
:0104B9002220
:0A051400C2A0D2A01204A9C2A022C6
:0E04CA00AF8CEFFEAD8A7C00E42DFFEC3EFE11
:0104D8002201
:10047C00AD07AC06E41201877B897AD279DE783A33
:08048C00120003E4F58CF58A6F
:010494002245
:08052800E4F58CF58AD28C2267
:03053500C28C2253
:0F04D90012051430A1FD12052820A1FD020535E2
:0C04E8007F057E347DC3DDFEDEFCDFFA04
:0104F40022E5
:0A051E00EF4E7003D29522C2952221
:10036F001204951204D91204CA8E118F1212047C32
:10037F008F168E158D148C137BFF7A0579307D03C4
:10038F007F0112043BAF16AE15AD14AC131201C0B2
:10039F00AB07AA06750C027D077F021203D2E4FF9A
:1003AF00FE7DA07C40AB16AA15A914A81312010953
:1003BF0050097F017E0012051E80A8E4FFFE120582
:0303CF001E80A0ED
:10000300EC4D6011E8497017ED33EC3304600DE4F7
:10001300FCFFFEFD22E933E8330470F802022C12E0
:1000230001F758046009E4CC2481500628500902E2
:100033000236284003020233C0E0EB4A7044B98021
:1000430006D0E0FB020222EF4E701CBD8008EBFFDE
:10005300EAFEE9FD80EBE98DF0A4FEE5F00200EC99
:10006300E9CDF9EAFEEBFFEF89F0A4FCE5F0CE89D8
:10007300F0A42EFFE435F0CD89F0A42DFEE435F095
:100083008067EF4E7005BD80D780C3EF8BF0A4ACC3
:10009300F0EE8BF0A42CFCE435F0F8EF8AF0A42CFE
:1000A300E5F038FCE433CB8DF0A42CFCE5F03BF811
:1000B300EE8AF0A42CFCE5F038F8E433CF89F0A401
:1000C3002CFCE5F038CF3400CE89F0A42FFFE5F007
:1000D3003EFEE433C98DF0A42EFEE5F039CD8AF05F
:1000E300A42FFFE5F03EFEE43DFD33D0E0FB5007D7
:1000F3000BBB000F020236EC2CFCEF33FFEE33FE9A
:06010300ED33FD02020EC7
:1001090074F8CC6480CCC86480C8F58204604FC39D
:10011900EB9FF5F0EA9E42F0E99D42F0E89C45F03C
:10012900603C501DE5825FFFE582D313CB5BCBF4C6
:100139002B5582FB50280ABA002409B900200880EF
:100149001DE5825BFBE582D313CF5FCFF4C3132F89
:100159005582FF50090EBE00050DBD00010CC3EB11
:100169009FF5F0EA9E42F0E99D42F0E89C45F06077
:0901790007CC4820E701B3EC2299
:1001820075F020800E75F010800575F0087D007EF8
:10019200007F003392D530D5031202D5EC334010E4
:1001A200EF33FFEE33FEED33FDEC33FCD5F0ED2201
:0E01B200E5F0247EA2D513CC92E7CDCEFF223D
:1001C000EDD2E7CD33EC3392D524814006E4FFFE37
:1001D000FDFC22FCE4CFCECDCC24E0501174FF8096
:1001E000EDC3CC13CCCD13CDCE13CECF13CF047033
:0701F000F030D5DE0202D55C
:1001F700E9D2E7C933E833F892D5EDD2E7CD33EC4E
:0702070033FC5002B2D522C6
:10020E00EC30E7100FBF000C0EBE00080DBD000451
:10021E000BEB6014A2D5EB13FCED92E7FD2274FFFD
:10022E00FCFDFEFF22E480F8A2D574FF13FC7D8056
:03023E00E480EF6A
:1002EF0002036FE493A3F8E493A34003F68001F2B3
:1002FF0008DFF48029E493A3F85407240CC8C33310
:10030F00C4540F4420C8834004F456800146F6DFDE
:10031F00E4800B01020408102040809004F5E47E75
:10032F00019360BCA3FF543F30E509541FFEE493D3
:10033F00A360010ECF54C025E060A840B8E493A39A
:10034F00FAE493A3F8E493A3C8C582C8CAC583CAC5
:10035F00F0A3C8C582C8CAC583CADFE9DEE780BE7D
:0104FF0000FC
:10024100BB010CE58229F582E5833AF583E0225072
:1002510006E92582F8E622BBFE06E92582F8E222BC
:0D026100E58229F582E5833AF583E49322D6
:10026E00EF8DF0A4A8F0CF8CF0A428CE8DF0A42EA4
:02027E00FE225E
:10028000BC000BBE0029EF8DF084FFADF022E4CC62
:10029000F875F008EF2FFFEE33FEEC33FCEE9DEC2B
:1002A000984005FCEE9DFE0FD5F0E9E4CEFD22ED71
:1002B000F8F5F0EE8420D21CFEADF075F008EF2FBB
:1002C000FFED33FD4007985006D5F0F222C398FDAC
:0502D0000FD5F0EA2249
:0E02D500C3E49FFFE49EFEE49DFDE49CFC223A
:00000001FF
